S31508000000780B002019020008F92B0008A12900081E
S31508000010F52B0008ED050008452F00080000000034
S31508000020000000000000000000000000592E000833
S315080000303507000800000000692C0008B12E0008EA
S3150800004033020008330200083302000833020008AE
S31508000050330200083302000833020008330200089E
S31508000060330200083302000833020008330200088E
S31508000070330200083302000833020008330200087E
S31508000080330200083302000833020008110600088C
S31508000090F1050008010600083302000833020008CB
S315080000A0330200083302000833020008330200084E
S315080000B0330200083302000833020008330200083E
S315080000C0330200083302000833020008330200082E
S315080000D0330200083302000833020008330200081E
S315080000E0330200083302000833020008000000004B
S315080000F000000000000000000000000000000000F2
S315080001000000000000000000330200083302000867
S3150800011033020008330200083302000833020008DD
S3150800012033020008330200083302000833020008CD
S315080001303302000800000000000000004106000825
S3150800014021060008310600083302000833020008B9
S3150800015000F002F800F050F814A696E8000CB24435
S31508000160B344DA4501D100F047F8BAE80F000FA604
S3150800017096E83000A5EB040504EB0607AAEB07048E
S31508000180A7F101074FEA15154FEA3414A4F1010443
S31508000190AC4201D300F030F813F0010F18BFFB1A78
S315080001A043F0010300F001F8DBE718471C320000B2
S315080001B03C320000103A24BF78C878C1FAD85207F2
S315080001C024BF30C830C144BF04680C6070470000C3
S315080001D0704700000023002400250026103A28BF97
S315080001E078C1FBD8520728BF30C148BF0B6070479B
S315080001F01FB51FBD10B510BD00F092F91146FFF7E7
S31508000200F7FF02F03BFF00F0B0F903B4FFF7F2FF87
S3150800021003BC00F0B7F900000948804709480047C1
S31508000220FEE7FEE7FEE7FEE7FEE7FEE7FEE7FEE798
S31508000230FEE7FEE704480549054A064B70470000F5
S31508000240412F00085101000878050020780B00208E
S31508000250780700207807002053EA020C00F069802E
S315080002602DE9F04B4FF00006002B1FBFB3FA83F5BC
S3150800027003FA05F424FA05F65E4012BF1643B2FAED
S3150800028082F502FA05F4C5F120051EBF22FA05FC1F
S3150800029044EA0C04203556EA044C4FEA144418BFC5
S315080002A0641C4FF000084FF00009904271EB030CF4
S315080002B039D3002919BFB1FA81F701FA07F6B0FA5E
S315080002C080F700FA07F6C7F120071EBF20FA07FCD9
S315080002D046EA0C062037B6FBF4FCA7EB0507103FE9
S315080002E007F01F0BCBF120062CFA06F60CFA0BFBCF
S315080002F044BFB3460026202FA4BF5E464FF0000B2E
S315080003005BEA060C08BF4FF0010B19EB0B0948EB2B
S315080003100608ABFB027C06FB02CC0BFB03CCC01B1E
S3150800032071EB0C01C1E70B46024641464846BDE85B
S31508000330F08B13B5084318BF4FF0FF300146AFF3F3
S315080003400080BDE81C40704740EA010370B59B0772
S315080003502ED14FF00136042A2AD308C810C99D1B8E
S315080003609D43121F15EAC61517D0D8B2E1B2401A36
S3150800037050EA056110D198B2A1B2401A50EA054177
S315080003800AD123F07F4024F07F41401A50EA052124
S3150800039002D1180EA0EB146070BDA342DBD018BAC8
S315080003A021BA884201D9012070BD4FF0FF3070BDD7
S315080003B00AB9002070BD10F8013B11F8014B63B172
S315080003C0A3420AD1521E08D010F8013B11F8014B7E
S315080003D01BB1A34201D1521EEDD1181B70BD032AD1
S315080003E040F2308010F0030C00F0158011F8013B44
S315080003F0BCF1020F624498BF11F801CB00F8013B2B
S3150800040038BF11F8013BA2F1040298BF00F801CBEE
S3150800041038BF00F8013B11F0030300F04F80083A9B
S31508000420C0F0088051F8043B083A51F804CBA0E81C
S315080004300810F5E7121D5CBF51F8043B40F8043B71
S31508000440AFF30080D20724BF11F8013B11F801CBA6
S3150800045048BF11F8012B24BF00F8013B00F801CB77
S3150800046048BF00F8012B70474FF0000200B513464D
S3150800047094469646203922BFA0E80C50A0E80C50B6
S31508000480B1F12001BFF4F7AF090728BFA0E80C5067
S3150800049048BF0CC05DF804EB890028BF40F8042B60
S315080004A008BF704748BF20F8022B11F0804F18BFCD
S315080004B000F8012B704770477047704710B5203A0F
S315080004C0C0F00B80B1E81850A0E81850B1E81850F1
S315080004D0A0E81850203ABFF4F5AF5FEA027C24BFC3
S315080004E0B1E81850A0E8185044BF18C918C0BDE8AC
S315080004F010405FEA827C24BF51F8043B40F8043B75
S3150800050008BF7047D20728BF31F8023B48BF11F829
S31508000510012B28BF20F8023B48BF00F8012B704783
S31508000520754600F02BF8AE4605006946534620F09E
S315080005300700854618B020B5FFF77CFEBDE82040C9
S315080005404FF000064FF000074FF000084FF0000B81
S31508000550AC46ACE8C009ACE8C009ACE8C009ACE8F0
S31508000560C00921F007018D46704710B50446AFF360
S3150800057000802046BDE81040FFF747BE0048704798
S315080005801800002001491820ABBEFEE7260002002D
S315080005907047000080B58CB00B9000200090069044
S315080005A0079001210891019002900390049005900C
S315080005B009910A900B9801A900F0AAF918B1FFE76A
S315080005C000F0BAF8FFE70B9801F00AF918B1FFE74F
S315080005D000F0B2F8FFE70B98132100F0B7F818B14E
S315080005E0FFE700F0A9F8FFE70CB080BDFFE7FEE7DC
S315080005F080B540F29440C2F2000000F08FFB80BD47
S3150800060080B540F29440C2F2000000F087FB80BD3E
S3150800061080B540F29440C2F2000000F07FFB80BD36
S3150800062080B540F2F840C2F2000000F077FB80BDCA
S3150800063080B540F2F840C2F2000000F06FFB80BDC2
S3150800064080B540F2F840C2F2000000F067FB80BDBA
S3150800065080B584B0039002910192029880680428BC
S3150800066008D1FFE7029840680399086003990120BA
S31508000670487107E00298006803990860039900200A
S315080006804871FFE702980069039908710298C068E3
S31508000690022804D1FFE703990120887110E0039925
S315080006A00020887103980079012808DBFFE7039A80
S315080006B002F1080001991279FFF791FEFFE7FFE7BB
S315080006C004B080BD80B584B003900291019203986E
S315080006D0407940B1FFE7039800680299486002999B
S315080006E00420886007E00398006802990860029968
S315080006F000208860FFE7039800790299086103984B
S31508000700807920B1FFE702990220C8600FE00299BC
S315080007100020C8600298006940B1FFE70198039974
S315080007200831029A1269FFF75AFEFFE7FFE704B09D
S3150800073080BD00007047000080B582B0EFF31080DE
S3150800074072B6019001F016FB02B080BD84B002902B
S315080007500191029890F820008DF803009DF8030097
S31508000760012805D0FFE79DF8030002280AD1FFE714
S31508000770019A0298016848691043486100208DF87B
S315080007800F0008E00299486A40F480204862012078
S315080007908DF80F00FFE79DF80F0004B070470000C2
S315080007A088B00690059104920393069890F8200065
S315080007B08DF807000698006880680090059880689C
S315080007C008B9FFE700E0FFE79DF80700012806D013
S315080007D0FFE79DF80700022840F08D80FFE79DF8A7
S315080007E00300400700280CD4FFE79DF80300000724
S315080007F0002806D4FFE79DF80300C006002871D537
S31508000800FFE70098C0F3016002900298032809D315
S31508000810FFE70699486A40F40000486201208DF80F
S315080008201F0071E002990120884003990860059825
S31508000830806868B9FFE705980168C06840EA4150D2
S3150800084006990968029A01EB0211C1F880010EE0C7
S3150800085005994A688868C96840EAC2000843069943
S315080008600968029A01EB0211C1F88001FFE70598B1
S31508000870006906990968029A01EB0211C1F8840118
S315080008800598007D01280CD1FFE7069800680299B3
S3150800089000EB0111D1F8840140F48070C1F884019D
S315080008A0FFE70498406806990968029A01EB021165
S315080008B0C1F88C010498006806990968029A01EB48
S315080008C00211C1F8880106980068029900EB011127
S315080008D0D1F8800140F00100C1F8800100208DF8B0
S315080008E01F0011E00699486A40F40010486201208A
S315080008F08DF81F0008E00699486A40F4802048628F
S3150800090001208DF81F00FFE79DF81F0008B070470B
S3150800091086B004900391049800680190049890F8B2
S3150800092020008DF803009DF80300012806D0FFE794
S315080009309DF80300022840F0B080FFE746F2004029
S31508000940C4F2000001900199D1F8000240F00100BC
S31508000950C1F800020199D1F8000220F47C50C1F8D0
S3150800096000020398426A0199D1F8000240EA02207F
S31508000970C1F800020398406900F01F010120884071
S315080009800290029A0199D1F81C029043C1F81C0200
S315080009900398C069F0B9FFE7029A0199D1F80C02E9
S315080009A09043C1F80C02039A9088D168526940EACC
S315080009B00140019901EBC201C1F84002039A10886F
S315080009C09168526940EA0140019901EBC201C1F8F8
S315080009D04402FFE70398C06901281ED1FFE7029A7F
S315080009E00199D1F80C021043C1F80C02039A9088B9
S315080009F01168526940EA0140019901EBC201C1F848
S31508000A004002039A90899168526940EA0140019927
S31508000A1001EBC201C1F84402FFE70398806940B9B7
S31508000A20FFE7029A0199D1F804029043C1F804023B
S31508000A3007E0029A0199D1F804021043C1F80402AA
S31508000A40FFE70398006940B9FFE7029A0199D1F8D0
S31508000A5014029043C1F8140207E0029A0199D1F8EA
S31508000A6014021043C1F81402FFE70398006A01282C
S31508000A7008D1FFE7029A0199D1F81C021043C1F880
S31508000A801C02FFE70199D1F8000220F00100C1F825
S31508000A90000200208DF8170008E00499486A40F41F
S31508000AA08020486201208DF81700FFE79DF817009F
S31508000AB006B0704781B0009001B0704786B00490C8
S31508000AC0039102920193049890F820008DF8030090
S31508000AD09DF80300012806D0FFE79DF803000228C9
S31508000AE040F0D780FFE7039880B9FFE704980068CD
S31508000AF0C068800748B9FFE70499486A40F40010BF
S31508000B00486201208DF81700CCE00FE004980068D1
S31508000B100069800748B9FFE70499486A40F400105D
S31508000B20486201208DF81700BCE0FFE704980068CA
S31508000B30039900EB0110D0F8B00100F00400029907
S31508000B4088600298806858B9FFE704980068039996
S31508000B5000EB0110D0F8B001400D029908600AE0D8
S31508000B6004980068039900EB0110D0F8B001C0089A
S31508000B7002994860FFE704980068039900EB0110A2
S31508000B80D0F8B00100F002000299C8600498006825
S31508000B90039900EB0110D0F8B40100F00F00029998
S31508000BA0086104980068039900EB0110D0F8B401B5
S31508000BB080B2000A0299886104980068039900EBDC
S31508000BC00110D0F8B401000C029948610498006835
S31508000BD0039900EB0110D0F8B80101990870049840
S31508000BE00068039900EB0110D0F8B801000A0199D2
S31508000BF0487004980068039900EB0110D0F8B80112
S31508000C00000C0199887004980068039900EB01109C
S31508000C10D0F8B801000E0199C870049800680399C5
S31508000C2000EB0110D0F8BC0101990871049800681E
S31508000C30039900EB0110D0F8BC01000A019948712C
S31508000C4004980068039900EB0110D0F8BC01000C69
S31508000C500199887104980068039900EB0110D0F88F
S31508000C60BC01000E0199C871039838B9FFE70498CA
S31508000C700168C86840F02000C86006E0049801686A
S31508000C80086940F020000861FFE700208DF817008A
S31508000C9008E00499486A40F48020486201208DF8EB
S31508000CA01700FFE79DF8170006B0704783B002905B
S31508000CB000200190029890F820008DF803009DF816
S31508000CC00300012805D0FFE79DF80300022822D17A
S31508000CD0FFE70298006880684001002804D5FFE70E
S31508000CE0019801300190FFE70298006880680001CA
S31508000CF0002804D5FFE7019801300190FFE7029824
S31508000D0000688068C000002804D5FFE70198013014
S31508000D100190FFE7FFE7019803B0704780B58AB0F6
S31508000D20099000200890099800684069079009987A
S31508000D3000684068069009980068806805900998D8
S31508000D400068C068049009980068006903900998CB
S31508000D500068806902909DF81C00C007002800F012
S31508000D609480FFE79DF81400C00758B3FFE7099879
S31508000D700168012088609DF814008007002804D5C2
S31508000D80FFE70998816A88471BE09DF81400400729
S31508000D90002805D5FFE7089840F4006008900FE0A2
S31508000DA09DF814000007002805D5FFE7089840F4C9
S31508000DB08050089003E00998416B8847FFE7FFE7F2
S31508000DC0FFE7FFE79DF81500C00760B3FFE709983E
S31508000DD001684FF4807088609DF815008007002828
S31508000DE004D5FFE70998C16A88471BE09DF81500F6
S31508000DF04007002805D5FFE7089840F400500890FA
S31508000E000FE09DF815000007002805D5FFE70898AC
S31508000E1040F48040089003E00998816B8847FFE713
S31508000E20FFE7FFE7FFE79DF81600C00760B3FFE797
S31508000E30099801684FF4803088609DF8160080078D
S31508000E40002804D5FFE70998016B88471BE09DF841
S31508000E5016004007002805D5FFE7089840F400402B
S31508000E6008900FE09DF816000007002805D5FFE753
S31508000E70089840F48030089003E00998C16B8847C9
S31508000E80FFE7FFE7FFE7FFE7FFE79DF81C0000071E
S31508000E90002810D5FFE79DF81000C006002809D5E0
S31508000EA0FFE7089840F40070089009980168102038
S31508000EB0C860FFE7FFE79DF81C00400700280FD52C
S31508000EC0FFE79DF810000007002808D5FFE70998F6
S31508000ED001680820C8600998416C8847FFE7FFE762
S31508000EE09DF81C00800700280BD5FFE709980068C5
S31508000EF0C068800720B1FFE70998016C8847FFE7BB
S31508000F00FFE79DF81C004006002810D5FFE79DF86E
S31508000F100C00C006002809D5FFE7089840F4806051
S31508000F2008900998016810200861FFE7FFE79DF817
S31508000F301C00800600280FD5FFE79DF80C00000767
S31508000F40002808D5FFE7099801680820086109986C
S31508000F50C16C8847FFE7FFE79DF81C00C00600281C
S31508000F600BD5FFE7099800680069800720B1FFE7FD
S31508000F700998816C8847FFE7FFE79DF81E00800700
S31508000F8000280FD5FFE79DF81800C006002808D5E9
S31508000F90FFE709980168102048600998016D88479D
S31508000FA0FFE7FFE79DF81E00C00778B1FFE79DF849
S31508000FB018000007002808D5FFE7099801680820E7
S31508000FC048600998416D8847FFE7FFE79DF81D00CF
S31508000FD00006002840F18D80FFE79DF818004007BD
S31508000FE0002840F18180FFE79DF81D00C00750B139
S31508000FF0FFE79DF80800C00728B1FFE7089840F00A
S3150800100001000890FFE79DF81D00800700280BD512
S31508001010FFE79DF808008007002805D5FFE7089830
S3150800102040F002000890FFE79DF81D0040070028E1
S315080010300BD5FFE79DF808004007002805D5FFE710
S31508001040089840F004000890FFE79DF81D00000787
S31508001050002848D5FFE79DF8080010F0700F42D029
S31508001060FFE7029800F0700001460191102814D09D
S31508001070FFE70198202815D0FFE70198302816D0F9
S31508001080FFE70198402817D0FFE70198502818D0A5
S31508001090FFE70198602819D01DE0089840F008007D
S315080010A0089019E0089840F01000089014E0089895
S315080010B040F0200008900FE0089840F040000890A3
S315080010C00AE0089840F08000089005E0089840F487
S315080010D08070089000E0FFE709980168886920F0A9
S315080010E070008861FFE7FFE70998016804204860F7
S315080010F0FFE7089848B1FFE7089A0999486A104334
S3150800110048620998816D8847FFE70AB080BD0000EC
S3150800111080B584B00290029820B9FFE701208DF8C7
S315080011200F003AE1029890F8200000285DD1FFE709
S31508001130029941F2C170C0F600000864029941F2B2
S31508001140B970C0F600004864029941F2D170C0F641
S3150800115000008864029941F2C970C0F60000C864AC
S31508001160029941F67500C0F600008862029941F6B8
S315080011708500C0F60000C862029941F69500C0F6DF
S3150800118000000863029941F66D00C0F60000486346
S31508001190029941F67D00C0F600008863029941F67F
S315080011A08D00C0F60000C863029941F2D970C0F6F6
S315080011B000000865029941F69D00C0F600004865E2
S315080011C0029940F6B520C0F6000088650298C06D01
S315080011D038B9FFE7029941F2A530C0F60000C865A4
S315080011E0FFE70298C16D8847FFE70298016808681B
S315080011F040F00100086000F0FDFC0190FFE702984E
S3150800120000684068C007A8B9FFE700F0F3FC019939
S31508001210401A0B280DD3FFE70299486A40F40030BC
S3150800122048620299052081F8200001208DF80F00F8
S31508001230B3E0E4E702980168086820F00200086055
S3150800124000F0D8FC0190FFE7029800684068800724
S31508001250002815D5FFE700F0CDFC0199401A0B28A8
S315080012600DD3FFE70299486A40F4003048620299B4
S31508001270052081F8200001208DF80F008DE0E3E7B6
S315080012800298007E012807D1FFE7029801680868DE
S3150800129040F08000086006E002980168086820F0BF
S315080012A080000860FFE70298407E012807D1FFE723
S315080012B002980168086840F04000086006E0029855
S315080012C00168086820F040000860FFE70298807E01
S315080012D0012807D1FFE702980168086840F0200056
S315080012E0086006E002980168086820F02000086097
S315080012F0FFE70298C07E012807D1FFE70298016838
S31508001300086820F01000086006E00298016808687E
S3150800131040F010000860FFE70298007F012807D117
S31508001320FFE702980168086840F00800086006E0D0
S3150800133002980168086820F008000860FFE702982C
S31508001340407F012807D1FFE702980168086840F046
S315080013500400086006E002980168086820F00400A6
S315080013600860FFE7029B19685A689868D3F80CC0AA
S3150800137040EA0C00D3F810C040EA0C005B69184339
S31508001380013A1043C861029900204862029A012175
S3150800139082F820108DF80F00FFE79DF80F0004B0C3
S315080013A080BD000080B598B0179000201690159063
S315080013B0149013901798006846F20041C4F2000191
S315080013C0884261D1FFE740F28040C2F2000001681E
S315080013D0013101600068012810D1FFE7FFE741F2FB
S315080013E01C00C4F20200016841F000710160006847
S315080013F000F0007012901298FFE7FFE7FFE741F24E
S315080014001800C4F20200016841F004010160006896
S3150800141000F0040011901198FFE74FF40060139054
S3150800142000200B901490159040F60000C4F20100BD
S31508001430079013A9089100F035FA079808994FF410
S3150800144080521392022214920322169200F02AFA6C
S315080014500B9A13200990114600F06AFC099800F0CF
S315080014605DFC0B9A14200A90114600F061FC0A985C
S3150800147000F054FC0B9A15200C90114600F058FC0D
S315080014800C9800F04BFC89E01798006846F60001B6
S31508001490C4F20001884240F08080FFE7FFE741F28E
S315080014A01C00C4F20200016841F080610160006816
S315080014B000F0806010901098FFE740F28040C2F27A
S315080014C000000168013101600068012810D1FFE7BA
S315080014D0FFE741F21C00C4F20200016841F0007106
S315080014E00160006800F000700F900F98FFE7FFE7B3
S315080014F0FFE741F21800C4F20200016841F0080152
S315080015000160006800F008000E900E98FFE72020A2
S31508001510139000201490159040F60040C4F2010084
S31508001520059013A9069100F0BDF905980699402281
S315080015301392022214920322169200F0B3F9FFE7DF
S315080015400421C4F2010108680D900D9840F0E0608E
S315080015500D900D9840F480000D900D980860FFE7F7
S315080015603F20019000220392114600F0E1FB01980A
S3150800157000F0D4FB039A40200290114600F0D8FBF5
S31508001580029800F0CBFB039A41200490114600F024
S31508001590CFFB049800F0C2FBFFE7FFE718B080BD59
S315080015A087B005908DF81310039200208DF80B0074
S315080015B0039848B9FFE70599486A40F480004862ED
S315080015C001208DF81B008DE0059890F82000012871
S315080015D057D1FFE79DF81300014601910E2846D81A
S315080015E00199DFE801F0080C1014181C2024282C97
S315080015F03034383C400003980599886240E00398E7
S315080016000599C8623CE003980599086338E0039891
S315080016100599486334E003980599886330E0039890
S315080016200599C8632CE003980599086428E003988F
S315080016300599486424E003980599886420E003988E
S315080016400599C8641CE003980599086518E003988D
S315080016500599486514E003980599886510E003988C
S315080016600599C8650CE003980599086608E0059988
S31508001670486A40F48000486201208DF80B00FFE7B5
S315080016802BE0059890F82000E8B9FFE79DF81300CD
S31508001690014600910D2804D0FFE700980E2804D0D3
S315080016A007E003980599C8650CE00398059908664C
S315080016B008E00599486A40F48000486201208DF8E0
S315080016C00B00FFE708E00599486A40F48000486285
S315080016D001208DF80B00FFE7FFE79DF80B008DF85A
S315080016E01B00FFE79DF81B0007B0704780B592B056
S315080016F011901198002102910AAA009208AB019351
S31508001700FFF7DCF90099019A04A80390FEF7A0FFF9
S315080017100298039A012101F009FB12B080BD00006E
S3150800172080B592B01190119800210AAA019208ABCF
S315080017300293FFF7C3F90199029A04A80390FEF7EA
S3150800174087FF039A0121084601F0F0FA12B080BD1E
S3150800175080B592B011901198012102910AAA0092BF
S3150800176008AB0193FFF7AAF90099019A04A8039018
S31508001770FEF76EFF0299039A002001F0D7FA12B01D
S3150800178080BD000080B592B0119011980121029198
S315080017900AAA009208AB0193FFF790F90099019AFB
S315080017A004A80390FEF754FF0299039A084601F02D
S315080017B0BDFA12B080BD000081B0009001B070473C
S315080017C081B0009001B0704781B0009001B07047B9
S315080017D081B0009001B0704781B0009001B07047A9
S315080017E080B584B00290029890F8200001282FD185
S315080017F0FFE70299022081F820000298016808682C
S3150800180020F00100086000F0F5F90190FFE7029862
S3150800181000684068C007A8B1FFE700F0EBF9019936
S31508001820401A0B280DD3FFE70299486A40F40030A6
S3150800183048620299052081F8200001208DF80F00E2
S315080018400FE0E4E70299002048628DF80F0008E0EF
S315080018500299486A40F40020486201208DF80F007A
S31508001860FFE79DF80F0004B080BD000081B000902E
S3150800187001B0704781B0009001B0704781B0009008
S3150800188001B0704781B0009001B0704781B00090F8
S3150800189001B0704781B0009001B0704781B00090E8
S315080018A001B0704790B00F900E9100200D900990EE
S315080018B0FFE70E9800680D99C840002800F07F8160
S315080018C0FFE70D99012088400C900E9800680C9946
S315080018D008400B900B980C99884240F06C81FFE702
S315080018E00E9840680590002851D0FFE70598012812
S315080018F03AD0FFE7059802283FD0FFE70598032866
S315080019005FD0FFE70598112832D0FFE7059812281F
S3150800191038D0FFE705980021C1F21101884236D078
S31508001920FFE705980021C1F2120188422FD0FFE790
S3150800193005980021C1F22101884228D0FFE70598C1
S315080019400021C1F22201884221D0FFE70598002133
S31508001950C1F2310188421AD0FFE705980021C1F289
S315080019603201884213D02FE00E98C06809902CE007
S315080019700E98C0680430099027E00E98C0680830B1
S31508001980099022E00E98C0680C3009901DE00E9868
S31508001990806818B9FFE70420099011E00E9880685E
S315080019A0012806D1FFE7082009900C980F990861CD
S315080019B005E0082009900C980F994861FFE7FFE7B2
S315080019C003E00020099000E0FFE70B98FF2803D802
S315080019D0FFE70F98049003E00F9804300490FFE7A0
S315080019E0049808900B98FF2804D8FFE70D98800004
S315080019F0039006E00D996FF01F0000EB810003903D
S31508001A00FFE70398079008980068079A0F21914006
S31508001A108843099991400843089908600E98C07947
S31508001A20C006002840F1C680FFE7FFE741F218002C
S31508001A30C4F20200016841F001010160006800F08B
S31508001A40010006900698FFE70D9820F0030008218C
S31508001A50C4F2010140580A900D9800F00300810075
S31508001A600F2000FA01F10A9888430A900F9840F669
S31508001A700001C4F20101884203D1FFE70020029069
S31508001A8026E00F9840F60041C4F20101884203D1CE
S31508001A90FFE70120019018E00F9841F20001C4F217
S31508001AA00101884203D1FFE7022000900AE00F995E
S31508001AB041F20042C4F201020420914208BF032009
S31508001AC00090FFE700980190FFE701980290FFE772
S31508001AD002980D9901F00301890000FA01F10A98AC
S31508001AE008430A900A980D9921F003010822C4F2C6
S31508001AF0010288500E988079C00748B1FFE70B9A13
S31508001B0040F20041C4F2010108681043086008E089
S31508001B100B9A40F20041C4F201010868904308603C
S31508001B20FFE70E9880798007002809D5FFE70B9A0A
S31508001B3040F20441C4F2010108681043086008E055
S31508001B400B9A40F20441C4F2010108689043086008
S31508001B50FFE70E988079C006002809D5FFE70B9A9B
S31508001B6040F20841C4F2010108681043086008E021
S31508001B700B9A40F20841C4F20101086890430860D4
S31508001B80FFE70E9880798006002809D5FFE70B9AAB
S31508001B9040F20C41C4F2010108681043086008E0ED
S31508001BA00B9A40F20C41C4F20101086890430860A0
S31508001BB0FFE7FFE7FFE70D9801300D9079E610B0D3
S31508001BC07047000082B00190ADF802100198806855
S31508001BD0BDF80210084204D0FFE701208DF8010085
S31508001BE003E000208DF80100FFE79DF8010002B030
S31508001BF07047000040F27050C2F20000006870475B
S31508001C0040F21000C2F20000027840F27051C2F2AF
S31508001C1000010868104408607047000080B582B06B
S31508001C2042F20001C4F20201086840F010000860A0
S31508001C30032000F097F80020019000F005F800F066
S31508001C403BF8019802B080BD80B582B0009040F2A2
S31508001C500C00C2F20000006840F21001C2F2000156
S31508001C600A784FF47A71B1FBF2F1B0FBF1F000F0AB
S31508001C7085FE20B1FFE701208DF8070018E00098DF
S31508001C800F280DD8FFE700994FF0FF30002200F02B
S31508001C904FF8009840F21401C2F20001086003E010
S31508001CA001208DF8070003E000208DF80700FFE704
S31508001CB09DF8070002B080BD83B0FFE741F2180027
S31508001CC0C4F20200016841F001010160006800F0F9
S31508001CD0010002900298FFE7FFE741F21C00C4F2F8
S31508001CE00200016841F080510160006800F08050F0
S31508001CF001900198FFE7FFE70421C4F20101086893
S31508001D000090009820F0E0600090009840F0007085
S31508001D10009000980860FFE703B0704780B582B06E
S31508001D208DF807009DF9070001F00EF902B080BD95
S31508001D3080B586B08DF817000491039200200290B2
S31508001D4001F01AF902909DF917000190029804997A
S31508001D50039A00F053FF0146019801F015F906B001
S31508001D6080BD000080B582B00190019801F02EF97F
S31508001D7002B080BD01F05CF982B001908DF80310C5
S31508001D804EF61051CEF20001086820F004000860F3
S31508001D909DF80300012802D1FFE730BF03E040BFEA
S31508001DA020BF20BFFFE702B07047000080B584B0AF
S31508001DB002900191029820B9FFE701208DF80F00E3
S31508001DC01BE1019842F20001C4F20201096801F020
S31508001DD00701884216D9FFE742F20000C4F2020062
S31508001DE0016821F00701019A11430160006800F0BB
S31508001DF007000199884204D0FFE701208DF80F00FB
S31508001E00FBE0FFE702980078800700282AD5FFE75D
S31508001E10029800784007002809D5FFE741F2040137
S31508001E20C4F20201086840F4E0600860FFE702981F
S31508001E3000780007002809D5FFE741F20401C4F23B
S31508001E400201086840F460500860FFE741F20401A7
S31508001E50C4F20201086820F0F000029A9268104362
S31508001E600860FFE702980078C007002860D0FFE7FF
S31508001E700298406801280ED1FFE741F20000C4F23B
S31508001E80020000688003002804D4FFE701208DF8CB
S31508001E900F00B2E021E00298406802280ED1FFE761
S31508001EA041F20000C4F2020000688001002804D450
S31508001EB0FFE701208DF80F009FE00DE041F20000DA
S31508001EC0C4F2020000688007002804D4FFE7012056
S31508001ED08DF80F0091E0FFE7FFE741F20401C4F235
S31508001EE00201086820F00300029A5268104308604D
S31508001EF0FFF780FE0090FFE741F20400C4F20200FB
S31508001F00006800F00C0002994968B0EB810F0ED00A
S31508001F10FFE7FFF76FFE0099401A41F289318842C0
S31508001F2004D3FFE703208DF80F0066E0E4E7FFE738
S31508001F30019842F20001C4F20201096801F00701A2
S31508001F40884216D2FFE742F20000C4F20200016896
S31508001F5021F00701019A11430160006800F00700AB
S31508001F600199884204D0FFE701208DF80F0044E06C
S31508001F70FFE702980078400700280CD5FFE741F2F2
S31508001F800401C4F20201086820F4E060029AD268EB
S31508001F9010430860FFE702980078000700280DD56F
S31508001FA0FFE741F20401C4F20201086820F4605018
S31508001FB0029A126940EAC2000860FFE700F022F8B8
S31508001FC041F20401C4F202010968C9B20A0943F2DE
S31508001FD0AA31C0F60001895CC84040F20C01C2F281
S31508001FE00001086040F21400C2F200000068FFF722
S31508001FF02BFE00208DF80F00FFE79DF80F0004B0B8
S3150800200080BD000080B592B04FF45060ADF8440032
S3150800201000200190109040F20671C0F608110F9149
S315080020200021C0F204510E9140F60D61C1F20F0174
S315080020300D9140F60921C0F60B410C9140F205615D
S31508002040C0F607010B9140F20121C0F203410A9143
S31508002050099008900790069005900490039041F225
S315080020600400C4F2020000680990099800F00C0008
S315080020700146029100286FD0FFE70298042804D091
S31508002080FFE70298082806D067E047F64000C0F246
S315080020907D10059067E00998C0F383410EA8405C5F
S315080020A006909DF82600C00700284AD0FFE741F2AF
S315080020B02C00C4F20200016801F00F020AA9895C2B
S315080020C008910068C003002825D5FFE741F22C00D7
S315080020D0C4F202000168CAB2012101EB121104918F
S315080020E0006800F47061022000EB11200390039849
S315080020F00699A0FB010147F64002C0F27D12A0FB3B
S31508002100020301FB0231049A089BA2FB0323FEF794
S31508002110A3F807900AE0069847F64001C0F27D1139
S3150800212048430899B0FBF1F00790FFE706989DF839
S315080021304510884204D1FFE7079840080790FFE753
S3150800214007E0069840F60011C0F23D0148430790A3
S31508002150FFE70798059006E0FFE741F20020C0F286
S315080021607A000590FFE7059812B080BD80B586B065
S315080021700490049820B9FFE701208DF81700EFE3D3
S3150800218004980078C007002800F0AE80FFE741F207
S315080021900400C4F20200006800F00C00042813D002
S315080021A0FFE741F20400C4F20200006800F00C00E8
S315080021B008281BD1FFE741F20400C4F202000068B8
S315080021C0C003002812D5FFE741F20000C4F202005E
S315080021D000688003002808D5FFE70498806820B9BE
S315080021E0FFE701208DF81700BAE37CE0FFE70498C3
S315080021F08068B0F5803F09D1FFE741F20001C4F2DB
S315080022000201086840F48030086032E0049880686B
S3150800221068B9FFE741F20001C4F20201086820F438
S3150800222080300860086820F48020086020E0049860
S315080022308068B0F5A02F0DD1FFE741F20001C4F286
S315080022400201086840F480200860086840F480307D
S3150800225008600CE041F20001C4F20201086820F4AB
S3150800226080300860086820F480200860FFE7FFE7F0
S31508002270FFE7FFE704988068D0B1FFE7FFF7BAFCED
S315080022800390FFE741F20000C4F2020000688003F1
S3150800229000280CD4FFE7FFF7ADFC0399401A652820
S315080022A004D3FFE703208DF8170059E3EAE719E09E
S315080022B0FFF7A0FC0390FFE741F20000C4F202001A
S315080022C00068800300280CD5FFE7FFF793FC039905
S315080022D0401A652804D3FFE703208DF817003FE36B
S315080022E0EAE7FFE7FFE7FFE704980078800700289A
S315080022F040F18D80FFE741F20400C4F20200006855
S3150800230010F00C0F13D0FFE741F20400C4F20200EC
S31508002310006800F00C00082829D1FFE741F2040004
S31508002320C4F202000068C003002820D4FFE741F287
S315080023300000C4F2020000688007002809D5FFE7FC
S3150800234004984069012804D0FFE701208DF817009A
S3150800235006E341F20001C4F20201086820F0F80021
S31508002360049A926940EAC2000860FFE74EE00498C2
S31508002370406958B3FFE70021C4F2422101200860F2
S31508002380FFF738FC0390FFE741F20000C4F20200B1
S315080023900068800700280CD4FFE7FFF72BFC039999
S315080023A0401A032804D3FFE703208DF81700D7E265
S315080023B0EAE741F20001C4F20201086820F0F800D9
S315080023C0049A926940EAC20008601EE00021C4F23D
S315080023D0422100200860FFF70DFC0390FFE741F259
S315080023E00000C4F202000068800700280CD5FFE749
S315080023F0FFF700FC0399401A032804D3FFE70320DC
S315080024008DF81700ACE2EAE7FFE7FFE7FFE7049875
S3150800241000780007002848D5FFE70498C06918B374
S31508002420FFE740F28041C4F2422101200860FFF72D
S31508002430E1FB0390FFE741F22400C4F202000068C2
S31508002440800700280CD4FFE7FFF7D4FB0399401A4E
S31508002450032804D3FFE703208DF8170080E2EAE794
S31508002460012000F0DBFC1FE040F28041C4F242216B
S3150800247000200860FFF7BEFB0390FFE741F2240047
S31508002480C4F202000068800700280CD5FFE7FFF7B2
S31508002490B1FB0399401A032804D3FFE703208DF8FC
S315080024A017005DE2EAE7FFE7FFE7049800784007D0
S315080024B0002840F1D880FFE700208DF8070041F298
S315080024C01C00C4F202000068C000002813D4FFE70D
S315080024D0FFE741F21C00C4F20200016841F0805196
S315080024E00160006800F0805000900098FFE7012026
S315080024F08DF80700FFE747F20000C4F20000006805
S31508002500C005002822D4FFE747F20001C4F2000103
S31508002510086840F480700860FFF76CFB0390FFE7DB
S3150800252047F20000C4F200000068C00500280CD479
S31508002530FFE7FFF75FFB0399401A652804D3FFE717
S3150800254003208DF817000BE2EAE7FFE7FFE7049898
S315080025500069012809D1FFE741F22001C4F202010E
S31508002560086840F00100086031E00498006968B91D
S31508002570FFE741F22001C4F20201086820F00100D9
S315080025800860086820F0040008601FE004980069E5
S3150800259005280DD1FFE741F22001C4F202010868BF
S315080025A040F004000860086840F0010008600CE08C
S315080025B041F22001C4F20201086820F00100086017
S315080025C0086820F004000860FFE7FFE7FFE7FFE779
S315080025D004980069E0B1FFE7FFF70CFB0390FFE7FB
S315080025E041F22000C4F202000068800700280ED4D9
S315080025F0FFE7FFF7FFFA0399401A41F2893188424B
S3150800260004D3FFE703208DF81700A9E1E8E71BE0EC
S31508002610FFF7F0FA0390FFE741F22000C4F2020048
S315080026200068800700280ED5FFE7FFF7E3FA03994D
S31508002630401A41F28931884204D3FFE703208DF816
S3150800264017008DE1E8E7FFE79DF80700012809D1A3
S31508002650FFE741F21C01C4F20201086820F080502D
S315080026600860FFE7FFE70498C06A002800F0B78013
S31508002670FFE741F20400C4F202000068C003002824
S3150800268017D5FFE741F20400C4F20200006800F023
S315080026900C0008280DD1FFE741F22C00C4F2020015
S315080026A00068C003002804D5FFE701208DF817004D
S315080026B056E10498C06A022868D1FFE741F2000093
S315080026C0C4F202000068C000002810D5FFE741F2F6
S315080026D02C00C4F20200006800F0F0000499496B6F
S315080026E0884204D0FFE701208DF8170038E16821F9
S315080026F0C4F2422100200860FFF77CFA0390FFE746
S3150800270041F20000C4F202000068000100280CD55E
S31508002710FFE7FFF76FFA0399401A652804D3FFE726
S3150800272003208DF817001BE1EAE741F22C01C4F2F9
S315080027300201086820F0F000049A526B1043086002
S31508002740086820F47060049A126B104308606821C8
S31508002750C4F2422101200860FFF74CFA0390FFE714
S3150800276041F20000C4F202000068000100280CD4FF
S31508002770FFE7FFF73FFA0399401A652804D3FFE7F6
S3150800278003208DF81700EBE0EAE726E041F22C017A
S31508002790C4F20201086820F4803008606821C4F297
S315080027A0422100200860FFF725FA0390FFE741F26F
S315080027B00000C4F202000068000100280CD5FFE7FB
S315080027C0FFF718FA0399401A652804D3FFE7032090
S315080027D08DF81700C4E0EAE7FFE7FFE7FFE704988C
S315080027E0006A002800F0B880FFE741F20400C4F24E
S315080027F00200006800F00C00082800F08780FFE758
S315080028000498006A022861D1FFE76021C4F24221D8
S3150800281000200860FFF7EEF90390FFE741F2000099
S31508002820C4F202000068800100280CD5FFE7FFF714
S31508002830E1F90399401A032804D3FFE703208DF82A
S3150800284017008DE0EAE70498406AB0F5803F11D199
S31508002850FFE70498426841F22C01C4F202010868B5
S3150800286010430860086820F00F00049AD2681043E5
S315080028700860FFE741F20401C4F20201086820F487
S315080028807410049B5A6A9B6A1A43104308606021B5
S31508002890C4F2422101200860FFF7ACF90390FFE774
S315080028A041F20000C4F202000068800100280CD43E
S315080028B0FFE7FFF79FF90399401A032804D3FFE7B8
S315080028C003208DF817004BE0EAE71EE06021C4F20A
S315080028D0422100200860FFF78DF90390FFE741F2D7
S315080028E00000C4F202000068800100280CD5FFE74A
S315080028F0FFF780F90399401A032804D3FFE703205A
S315080029008DF817002CE0EAE7FFE724E00498006A50
S31508002910012804D1FFE701208DF8170020E041F2D5
S315080029200400C4F2020000680290029800F48030A5
S315080029300499496A884208D1FFE7029800F47010A2
S315080029400499896A884204D0FFE701208DF81700A8
S3150800295006E0FFE7FFE7FFE700208DF81700FFE72F
S315080029609DF8170006B080BD4EF21001CEF20001A8
S31508002970086840F0020008607047000080B582B021
S315080029800190019800F06AFA02B080BD4EF210017B
S31508002990CEF20001086820F00200086070470000C7
S315080029A0FFE7FEE781B08DF802008DF801109DF86B
S315080029B0011040F28840C2F2000000EB41009DF889
S315080029C00210405C9DF8012040F28C41C2F20001E1
S315080029D001EB42019DF80220895C884204D1FFE799
S315080029E000208DF803004DE09DF8011040F2884064
S315080029F0C2F2000000EB41009DF80210405C9DF811
S31508002A00012040F28C41C2F2000101EB42019DF81F
S31508002A100220895C88421ADDFFE79DF8011040F222
S31508002A208840C2F2000000EB41009DF80210405CAD
S31508002A309DF8012040F28C41C2F2000101EB4201EF
S31508002A409DF80220895C401A8DF803001AE09DF86B
S31508002A50011040F28C40C2F2000000EB41009DF8E4
S31508002A600210415C9DF8012040F28840C2F2000045
S31508002A7000EB42009DF80220805C401A10308DF869
S31508002A800300FFE79DF8030001B0704780B582B0E8
S31508002A9040F29440C2F20000019046F20041C4F2AE
S31508002AA0000101600421416000218160C1604FF48A
S31508002AB0602202614FF48012426101760122427659
S31508002AC08176C27601774177FEF722FB18B1FFE7D8
S31508002AD0FDF732FEFFE702B080BD000080B582B088
S31508002AE040F2F840C2F20000019046F60001C4F236
S31508002AF0000101600421416000218160C1604FF43A
S31508002B00602202614FF48012426101760122427608
S31508002B108176C27601774177FEF7FAFA18B1FFE7B0
S31508002B20FDF70AFEFFE702B080BD000080B58CB055
S31508002B3000200B900A9009900890FFE741F21800D0
S31508002B40C4F20200016841F020010160006800F04B
S31508002B50200007900798FFE7FFE741F21800C4F244
S31508002B600200016841F004010160006800F00400F9
S31508002B7006900698FFE7FFE741F21800C4F2020044
S31508002B80016841F010010160006800F0100005902E
S31508002B900598FFE7FFE741F21800C4F20200016852
S31508002BA041F008010160006800F0080004900498EC
S31508002BB0FFE74FF40040089000200190099001209B
S31508002BC002900A9040F60000C4F2010008A9039199
S31508002BD0FEF768FE019A029803994FF4E0530893AA
S31508002BE009920A9041F20000C4F20100FEF75AFE6B
S31508002BF00CB080BDFFE7FEE7FFE7FEE788B0079069
S31508002C0006910592079800F0070004900498C0F111
S31508002C100700052803D3FFE70420019004E0049881
S31508002C20C0F107000190FFE701980390049804306B
S31508002C30062803D8FFE70020009003E0049803382D
S31508002C400090FFE70098029006980399012202FA7D
S31508002C5001F101390840029B984005999A40013ACA
S31508002C601140084308B070477047000010B583B09C
S31508002C708DF80B008DF80A10019202208DF80300DA
S31508002C809DF80A1040F28C40C2F2000000EB4100A9
S31508002C909DF80B10405C9DF80A2040F28841C2F26C
S31508002CA0000101EB42019DF80B20895C884239D06E
S31508002CB0FFE7019A9DF80A3040F27E00C2F2000052
S31508002CC000EB43209DF80BC000EB0C2040F28C4132
S31508002CD0C2F2000101EB430313F80C3000EB0314B6
S31508002CE01B01D4F804C0D4F808E0E468D460C2F83C
S31508002CF008E0C2F804C0C05810609DF80A0001EB4D
S31508002D0040009DF80B20805C013000F00F009DF814
S31508002D100A2001EB42019DF80B20885400208DF80B
S31508002D200300FFE79DF8030003B010BDB0B584B0FB
S31508002D308DF80E008DF80D10029201208DF807000F
S31508002D409DF80E00022804DBFFE703208DF80F002C
S31508002D505FE09DF80D1040F28840C2F2000000EBDB
S31508002D6041009DF80E10405C013000F00F009DF800
S31508002D700D2040F28C41C2F2000101EB42019DF8A0
S31508002D800E20895C88423BD0FFE79DF80D0040F293
S31508002D907E01C2F2000101EB40219DF80E2001EBF5
S31508002DA0022440F28841C2F2000101EB4000805C37
S31508002DB004EB00120501DDF808C0DCF800E0DCF8D9
S31508002DC00400DCF80830DCF80CC044F805E0C2F86A
S31508002DD00CC0936050609DF80D0001EB40009DF813
S31508002DE00E20805C013000F00F009DF80D2001EBED
S31508002DF042019DF80E20885400208DF80700FFE751
S31508002E009DF80E0000F09AFA9DF807008DF80F005D
S31508002E10FFE79DF80F0004B0B0BD000082B0019036
S31508002E20019840F20C01C2F200010968C90844F68B
S31508002E30D352C1F26202A1FB0221890948430090DC
S31508002E40FFE700BFFFE70098411E00910028F8D170
S31508002E50FFE702B0704700007047000080B582B0F7
S31508002E60009000980138B0F1807F03D3FFE7012076
S31508002E70019019E0009801384EF21401CEF20001D3
S31508002E8008604FF0FF300F2100F07EF84EF218016F
S31508002E90CEF20001002008604EF21002CEF20002C7
S31508002EA0072111600190FFE7019802B080BD00007C
S31508002EB080B5FEF7A5FE80BD80B594B006A8009043
S31508002EC03821FDF7D1FA0098002105910491039164
S31508002ED002910191092106914FF48032089204214A
S31508002EE0099101210B910D91079202210E910F92E2
S31508002EF04FF4E012109211914FF4C06112914021E3
S31508002F001391FFF733F918B1FFE7FDF715FCFFE753
S31508002F100F20019002210291802003900020049046
S31508002F20059001A8FEF742FF18B1FFE7FDF704FC7C
S31508002F30FFE77021C4F242210120086014B080BD69
S31508002F4070470000FFE7FEE781B08DF803009DF9A2
S31508002F50030000280ED4FFE79DF9031001F01F02B5
S31508002F60012090404A094EF20011CEF2000141F8C4
S31508002F702200FFE701B070474EF60C50CEF2000073
S31508002F800068C0F30220704782B08DF807000091F0
S31508002F909DF9070000280AD4FFE7009800019DF96B
S31508002FA007104EF20042CEF2000288540BE0009859
S31508002FB000019DF8071001F00F014EF61452CEF2EB
S31508002FC000028854FFE702B07047000083B0029001
S31508002FD0029800F0070000904EF60C51CEF2000160
S31508002FE00868019001984FF6FF0210400190019879
S31508002FF0009A40EA02200022C0F2FA5210430190D9
S315080030000198086003B07047BFF34F8F4EF60C5116
S31508003010CEF20001086800F4E0600422C0F2FA5219
S3150800302010430860BFF34F8FFFE700BFFDE70000BE
S31508003030BFF34F8F4EF60C51CEF20001086800F42C
S31508003040E0600422C0F2FA5210430860BFF34F8FC3
S31508003050FFE700BFFDE700000A46096840F2DB13F8
S31508003060994205D1117A40F29243C2F200031970CF
S31508003070B0FA80F040090021FFF758BE80B594B039
S3150800308000201390FEF7CAFDFFF716FF43F2BA3188
S31508003090C0F600014FF2E870C1F6FF700C22FDF78A
S315080030A053F910B1FFE7FFF7AFFFFFF73FFDFFF753
S315080030B0EDFCFFF713FD41F20000C4F20100089091
S315080030C04FF48051FEF77EFD0146089807914FF4AC
S315080030D00061FEF777FD079B014608980139B1FAAA
S315080030E081F1490949004A1C012B08BF114640F2E3
S315080030F09042C2F200020A9211704FF48061FEF704
S3150800310061FD099040F60000C4F201004FF4004149
S31508003110FEF758FD099B0A990138B0FA80F0400974
S315080031204000421C012B08BF1046487040F29440EC
S31508003130C2F200000D9041F2ED62C0F600020621CF
S315080031400B91FEF72DFA0D9841F25172C0F6000266
S3150800315008210C91FEF724FA0B9940F2F840C2F2C6
S3150800316000000E9041F22172C0F60002FEF718FA2E
S315080031700C990E9841F28572C0F60002FEF710FA15
S315080031800D980221FDF7E2FA0E981021FDF7DEFAF6
S315080031900D98FDF7FFF90E98FDF7FCF9FFE7FEF726
S315080031A029FD40F26051C2F200010968401AB0F5E3
S315080031B07A7F32D3FFE7FEF71DFD40F26051C2F277
S315080031C00001086000F0A2F800200121FFF7EAFBE1
S315080031D010BBFFE701210846FFF7E4FBE0B9FFE76C
S315080031E040F25C50C2F200000178013101700078AB
S315080031F0062810DBFFE7FFF7C9FB00200690012130
S31508003200FEF7BAFDFFF7B0FB069840F25C51C2F232
S3150800321000010870FFE7FFE7FFE700200121FFF73D
S31508003220C1FB012811DBFFE740F25C51C2F2000145
S3150800323000200590087001210FAA0492FFF716FDD9
S3150800324004990598FFF708FFFFE701210846FFF7ED
S31508003250A9FB012812DBFFE740F25C51C2F200012C
S3150800326000200870012103910FAA02920846FFF771
S31508003270FDFC02990398FFF7EFFEFFE7002000F038
S315080032805DF8012000F05AF840F29440C2F20000BE
S315080032900068816940F28440C2F200000090016033
S315080032A0C27840F26451C2F2000101910A70428864
S315080032B04A700268C2F302128A700268C2F3800278
S315080032C0CA700268C2F340020A71026802F001027B
S315080032D04A7140F2F842C2F200021268926902602C
S315080032E0C2788A714288CA710268C2F302120A72E7
S315080032F00268C2F380024A720268C2F340028A7206
S31508003300006800F00100C87249E7000040F20800B2
S31508003310C2F20000007808B1704700BF40F278009A
S31508003320C2F200008178013181708178022938BFA4
S3150800333070470021017081804170704780B592B056
S315080033408DF847009DF847000021FFF72BFB50B387
S31508003350FFE79DF8471040F20000C2F2000050F85F
S315080033602100FDF7A3FC03281CD1FFE79DF84700C1
S3150800337000210DAA0192FFF779FC019807A902918D
S3150800338005AA0392FDF79EF90299039A9DF847301C
S3150800339040F20000C2F2000050F8230004ABFDF72B
S315080033A0FFF9FFE7FFE712B080BD0000000000004C
S315080033B00000010203040607080933445566112272
S315080033C03344776655440000E833000800000020BF
S315080033D018000000B4010008003400081800002096
S315080033E0600B0000D401000894040020F8040020B3
S315080033F0010000000024F400010000001000000095
S70508000151A0
