:020000040800F2
:100000009817002019020008291E0008D11C0008BA
:10001000251E000825050008291F00080000000013
:100020000000000000000000000000001D1F00088C
:1000300071050008000000002D1E0008211F0008A7
:1000400033020008330200083302000833020008BC
:1000500033020008330200083302000833020008AC
:10006000330200083302000833020008330200089C
:10007000330200083302000833020008330200088C
:10008000330200083302000833020008410500086B
:10009000290500083505000833020008330200086E
:1000A000330200083302000833020008330200085C
:1000B000330200083302000833020008330200084C
:1000C000330200083302000833020008330200083C
:1000D000330200083302000833020008330200082C
:1000E0003302000833020008330200080000000059
:1000F0000000000000000000000000000000000000
:100100000000000000000000330200083302000875
:1001100033020008330200083302000833020008EB
:1001200033020008330200083302000833020008DB
:100130003302000800000000000000006505000810
:100140004D05000859050008330200083302000875
:1001500000F002F800F050F814A696E8000CB24443
:10016000B344DA4501D100F047F8BAE80F000FA612
:1001700096E83000A5EB040504EB0607AAEB07049C
:10018000A7F101074FEA15154FEA3414A4F1010451
:10019000AC4201D300F030F813F0010F18BFFB1A86
:1001A00043F0010300F001F8DBE718475822000094
:1001B00078220000103A24BF78C878C1FAD85207D4
:1001C00024BF30C830C144BF04680C6070470000D1
:1001D000704700000023002400250026103A28BFA5
:1001E00078C1FBD8520728BF30C148BF0B607047A9
:1001F0001FB51FBD10B510BD00F026F91146FFF761
:10020000F7FF01F029FF00F044F903B4FFF7F2FF14
:1002100003BC00F04BF9000009488047094800473B
:10022000FEE7FEE7FEE7FEE7FEE7FEE7FEE7FEE7A6
:10023000FEE7FEE704480549054A064B7047000003
:10024000251F000851010008981100209817002070
:10025000981300209813002053EA020C00F06980E4
:100260002DE9F04B4FF00006002B1FBFB3FA83F5CA
:1002700003FA05F424FA05F65E4012BF1643B2FAFB
:1002800082F502FA05F4C5F120051EBF22FA05FC2D
:1002900044EA0C04203556EA044C4FEA144418BFD3
:1002A000641C4FF000084FF00009904271EB030C02
:1002B00039D3002919BFB1FA81F701FA07F6B0FA6C
:1002C00080F700FA07F6C7F120071EBF20FA07FCE7
:1002D00046EA0C062037B6FBF4FCA7EB0507103FF7
:1002E00007F01F0BCBF120062CFA06F60CFA0BFBDD
:1002F00044BFB3460026202FA4BF5E464FF0000B3C
:100300005BEA060C08BF4FF0010B19EB0B0948EB39
:100310000608ABFB027C06FB02CC0BFB03CCC01B2C
:1003200071EB0C01C1E70B46024641464846BDE869
:10033000F08B13B5084318BF4FF0FF300146AFF301
:100340000080BDE81C40704740EA010370B59B0780
:100350002ED14FF00136042A2AD308C810C99D1B9C
:100360009D43121F15EAC61517D0D8B2E1B2401A44
:1003700050EA056110D198B2A1B2401A50EA054185
:100380000AD123F07F4024F07F41401A50EA052132
:1003900002D1180EA0EB146070BDA342DBD018BAD6
:1003A00021BA884201D9012070BD4FF0FF3070BDE5
:1003B0000AB9002070BD10F8013B11F8014B63B180
:1003C000A3420AD1521E08D010F8013B11F8014B8C
:1003D0001BB1A34201D1521EEDD1181B70BD10B547
:1003E000203AC0F00B80B1E81850A0E81850B1E8EE
:1003F0001850A0E81850203ABFF4F5AF5FEA027C2D
:1004000024BFB1E81850A0E8185044BF18C918C05C
:10041000BDE810405FEA827C24BF51F8043B40F8FD
:10042000043B08BF7047D20728BF31F8023B48BFE2
:1004300011F8012B28BF20F8023B48BF00F8012B20
:100440007047704770477047754600F02BF8AE460E
:1004500005006946534620F00700854618B020B5D0
:10046000FFF7E8FEBDE820404FF000064FF0000720
:100470004FF000084FF0000BAC46ACE8C009ACE808
:10048000C009ACE8C009ACE8C00921F007018D46FD
:10049000704710B50446AFF300802046BDE8104019
:1004A000FFF7B3BE00487047400000200149182004
:1004B000ABBEFEE7260002007047000010B58AB010
:1004C0000446006846F60001C4F2000188424FF07D
:1004D00000004FF0000208BF0E20CDE90502012008
:1004E000CDE907000E20099069462046CDE900229B
:1004F000CDE90222049200F0BBF8002818BF00F0FA
:1005000039F8204600F030FE002818BF00F032F81D
:100510002046132100F034F8002818BF00F02AF814
:100520000AB010BDFEE7000041F2C800C2F20000B0
:1005300000F0BAB941F2C800C2F2000000F0B4B94C
:1005400041F2C800C2F2000000F0AEB941F22C1036
:10055000C2F2000000F0A8B941F22C10C2F2000073
:1005600000F0A2B941F22C10C2F2000000F09CB9D8
:1005700070470000EFF3108072B600F0FDBF00007E
:1005800090F82020013A012A08D8006800F11402EE
:100590000020136819431160704700BF00F1240266
:1005A00001204FF480211368194311607047000047
:1005B000B0B590F820E0D0F800C0AEF1010EBEF169
:1005C000010FDCF808E011D81EF0E05F18D0CEF380
:1005D000016EBEF1030F1DD100F1240301204FF481
:1005E00000011A6811431960B0BD00BF00F1240377
:1005F00001204FF480211A6811431960B0BD00BF7B
:1006000000F1240301204FF400111A68114319600E
:10061000B0BD00BF012000FA0EF01860886838B144
:100620004B68CC6844EAC30343EA000504E000BF1A
:100630000868CB6843EA40550CF5C0744FEA0E10C9
:10064000255004EB0E130D69184640F8045F097D30
:10065000012903D1016841F48071016050680121D2
:10066000D8601068986000201A6811431960B0BD06
:1006700090F82020013A012A30D8B0B546F2006047
:10068000C4F20000026842F001020260026822F433
:100690007C520260D1F814E0CC694A6A0368012CEC
:1006A00043EA022202600EF01F024FF0010303FA38
:1006B00002F2C3696FEA020C23EA0203C36113D09A
:1006C0002CBBC36803EA0C03C360CB688C8844EA84
:1006D000034300EBCE0423640B4611E0416A41F46E
:1006E0008021416201207047C3681343C3600B68D7
:1006F0008C8844EA034300EBCE04236401F10C032D
:100700008C681B8843EA044300EBCE0463644368AF
:100710008D6943EA0204D1F810E0096A002D08BF90
:1007200003EA0C0444604369BEF1000F43EA02048B
:1007300008BF03EA0C040129446102D1C1691143D5
:10074000C161016821F0010101600020B0BD00001D
:100750007047000010B590F820C0ACF1010CBCF15E
:10076000010F79D8D0F800C000290CBFDCF80CE0EC
:10077000DCF810E05FEA8E7E78D00CF5D87C4FEA8A
:10078000011E5CF80E4014F0040494605CF80EE066
:100790000CEB011C19BF4FEADE0454604FEA5E54B3
:1007A0001460DCF80040002904F00204D460DCF896
:1007B000044004F00F041461DCF80440C4F307247F
:1007C0009461DCF804404FEA14445461DCF80820DA
:1007D0001A70026802EB0112D2F8B8214FEA122215
:1007E0005A70026802EB0112D2F8B8214FEA1242A5
:1007F0009A70026802EB0112D2F8B8214FEA126235
:10080000DA70026802EB0112D2F8BC211A71026898
:1008100002EB0112D2F8BC214FEA12225A7102688F
:1008200002EB0112D2F8BC214FEA12429A7102681F
:1008300002EB0112D2F8BC214FEA1262DA710068B1
:100840000CBF00F10C0100F11001002020220B6808
:100850001A430A6010BD00BF00F1240101204FF4CB
:1008600080220B681A430A6010BD00BF00F124010A
:1008700001204FF400120B681A430A6010BD0000FB
:1008800090F820100139012984BF002070470068CA
:10089000816882688068C1F38061C2F3C0621144DC
:1008A000C0F30070084470472DE9F04F81B0044652
:1008B00000684669D0F804908768D0F80CB0D0F88A
:1008C00010A0D0F81880F10704D1002530071CD4FF
:1008D00023E000BFF9070FD00121BA07816007D4D8
:1008E000780700F1A780380700F1AE80342000E0DF
:1008F00028202158204688470025F80500F18680E9
:10090000F80300F1AA80300707D51BF0100004D0CF
:10091000206845F400751021C160700708D51BF0F0
:10092000080005D02068616C0822C2602046884714
:10093000B00706D52068C068800702D0216C204629
:100940008847700607D51AF0100004D0206845F4D7
:10095000806510210161B00608D51AF0080005D0A5
:100960002068E16C0822026120468847F00606D51F
:1009700020680069800702D0A16C20468847B00338
:1009800008D519F0100005D02068216D10224260B2
:1009900020468847F00308D519F0080005D02068E4
:1009A000616D0822426020468847300440F1908003
:1009B0005FEA497040F1898006F4807008EA1020EF
:1009C00028435FEA8871014648BF41F00201B20541
:1009D00058BF01465FEA48700D4648BF45F0040520
:1009E000700558BF0D46300540F16F8018F070005B
:1009F0006BD010380009052862D8DFE800F0035BEF
:100A000053574F5F45F008055AE000BF20684FF488
:100A10008071BA05816005D478050FD4380517D4E4
:100A2000A16B00E0E16A20468847F8037FF56BAFD1
:100A300013E000BF4FF400655FE700BF05F5005508
:100A4000F8037FF560AF08E04FF4805555E700BF2D
:100A500005F58045F8037FF556AF20684FF48031E7
:100A6000BA03816006D478030CD4380310D4E16B48
:100A700001E000BF216B2046884730073FF545AFB6
:100A80004BE700BF05F5004530073FF53EAF44E7B3
:100A900005F5803530073FF538AF3EE745F0800576
:100AA0000EE000BF45F020050AE000BF45F040051C
:100AB00006E000BF45F0100502E000BF45F4807578
:100AC0002068816921F07001816120680421416002
:100AD00055B1606AA16D40EA05022046626201B02C
:100AE000BDE8F04F084700BF01B0BDE8F08F00003F
:100AF000002804BF012070472DE9F041044690F81A
:100B00002000002849D141F2551141F2C91541F2A6
:100B1000D11241F25918C0F60001C0F60005C0F626
:100B2000000241F2D91341F2D510C0F60008C0F618
:100B3000000341F2C51641F2CD17C0F60000C4E92A
:100B40000A5204F130026164E16D41F2611C41F22C
:100B50005D1EC0F60006C0F60007C8C2C4E90F0853
:100B600041F2651041F2DD1240F25173C0F6000C03
:100B7000C0F6000EC0F60000C0F60002C0F600038A
:100B8000C4E912CE20656265A36521B940F67941BA
:100B9000C0F60001E165204688472068016841F001
:100BA0000101016000F02CFC054600BF206841688F
:100BB000C90705D100F024FC401B0B28F6D310E038
:100BC000016821F00201016000F01AFC054600BF37
:100BD0002068416889070FD500F012FC401B0B28E4
:100BE000F6D3606A052140F400306062012084F889
:100BF0002010BDE8F08100BF217E0268012922F0AB
:100C0000800208BF80320260617E0268012922F002
:100C1000400208BF40320260A17E0268012922F032
:100C2000200208BF20320260E17E0268012922F022
:100C3000100218BF10320260217F0268012922F0E1
:100C4000080208BF08320260617F0268012922F0B1
:100C5000040208BF04320260271D8ECF66691A4362
:100C60003A43324301391143C161002001216062DE
:100C700084F82010BDE8F08170B586B0006846F6B3
:100C80000001C4F2000188424FF00001CDE90411D7
:100C9000CDE9021146D046F20041C4F2000188427B
:100CA00040F0A58041F2C401C2F200010A6841F29D
:100CB0001C00C4F20200531C0B6042B9016841F0F1
:100CC00000710160016801F000710191019950F813
:100CD000041C40F6000441F0040140F8041C50F8E4
:100CE000040CC4F2010400F00400019001984FF4D8
:100CF00000600290002002ADCDE9030020462946A5
:100D000000F06EFA4FF4805002900220039003200E
:100D100005902046294600F063FA15251424132671
:100D20004DE000BF41F21C00C4F20200016841F036
:100D300080610160016801F080610191019941F2D7
:100D4000C401C2F200010A68531C0B6042B9016879
:100D500041F000710160016801F000710191019999
:100D600050F8041C02AE41F0080140F8041C50F891
:100D7000040C314600F008000190019820200290F8
:100D80000020CDE9030040F60000C4F2010000F5A8
:100D90008065284600F024FA0220039003204024B6
:100DA000059028463146029400F01AFA0420C4F255
:100DB00001000168412541F0E8613F2601603046AD
:100DC0000021002200F09CFB304600F087FB20460B
:100DD0000021002200F094FB204600F07FFB284613
:100DE0000021002200F08CFB284600F077FB06B0C3
:100DF00070BD0000BAB190F82030012B10D10E293F
:100E000011D8DFE801F0093F33372743473B4F2F25
:100E10004B232B1B1F0000BF82620020704700BFC6
:100E200090F8203033B1416A41F4800141620120E1
:100E3000704700BF0E2905D00D29F4D1C2650020EE
:100E4000704700BF02660020704700BF4265002067
:100E5000704700BF82630020704700BF826500209A
:100E6000704700BFC2640020704700BF02630020CB
:100E7000704700BF42630020704700BF42640020FB
:100E8000704700BFC2620020704700BFC2630020ED
:100E9000704700BF02640020704700BF0265002059
:100EA000704700BF8264002070470000F0B58BB02F
:100EB00004AC02AB002122460027FFF74BFCDDE922
:100EC00006610898042E08BF0434256808280446E3
:100ED00028BF082402290197009701D1012106E0CB
:100EE00020B1684602A92246FFF779FA002140F2B4
:100EF000A800C2F2000082788379013202F03F023A
:100F00009A4205D18189013181810BB0F0BD00BFCA
:100F1000837840F2C207321FC2F20007B2FA82F2AF
:100F200007EB0313520983F80618002183F80528FC
:100F300083F80718DDE90021C3F8005883F8044856
:100F4000C3F80C18C3F808288178013101F03F017B
:100F500081700BB0F0BD0000F0B58BB004AC02ABFB
:100F6000002122460027FFF7F5FBDDE9066108981E
:100F7000042E08BF043425680828044628BF082426
:100F800002290197009701D1012106E020B16846AE
:100F900002A92246FFF723FA002140F2A800C2F27C
:100FA0000000C278C379013202F03F029A4205D1B3
:100FB000C1890131C1810BB0F0BD00BFC37840F2DF
:100FC000C207321FC2F20007B2FA82F207EB031324
:100FD000520983F8061C002183F8052C83F8071CAE
:100FE000DDE90021C3F8005C83F8044CC3F80C1C55
:100FF000C3F8082CC178013101F03F01C1700BB07A
:10100000F0BD0000F0B58BB004AC02AB012122466C
:101010000127FFF79FFBDDE906610898042E08BF52
:10102000043425680828044628BF08240022022921
:101030000192009206D020B1684602A92246FFF72D
:10104000CEF9002740F2A800C2F200008178827930
:10105000013101F03F01914204D181890131818147
:101060000BB0F0BD311F827840F2C203B1FA81F1BA
:10107000C2F20003490903EB021282F805180021AD
:1010800082F80718DDE90031C2F8005882F80448F8
:1010900082F80678C2F80C18C2F808388178013155
:1010A00001F03F0181700BB0F0BD0000F0B58BB0D6
:1010B00004AC02AB012122460127FFF74BFBDDE91F
:1010C00006610898042E08BF0434256808280446E1
:1010D00028BF0824002202290192009206D020B1E4
:1010E000684602A92246FFF77AF9002740F2A800D5
:1010F000C2F20000C178C279013101F03F01914292
:1011000004D1C1890131C1810BB0F0BD311FC2785A
:1011100040F2C203B1FA81F1C2F20003490903EBC4
:10112000021282F8051C002182F8071CDDE900315B
:10113000C2F8005C82F8044C82F8067CC2F80C1CF1
:10114000C2F8083CC178013101F03F01C1700BB019
:10115000F0BD0000704700007047000070470000BD
:101160007047000070470000B0B5044690F82000BA
:1011700001281DD1022084F820002068016821F098
:101180000101016000F03CF9054600BF206840689D
:10119000C00713D000F034F9401B0B28F6D3606A67
:1011A00040F400306062052084F820000120B0BDCA
:1011B000606A40F4002060620120B0BD00206062DF
:1011C000B0BD00007047000070470000704700008D
:1011D0007047000070470000704700007047000033
:1011E0002DE9F04F82B00E68002E00F0FF8040F233
:1011F0000C4C40F2004E41F20042C4F2010CC4F229
:10120000010EC4F201020427002401234FF0000A5A
:101210004FF00009904208BF0327009749E000BF44
:1012200041F20002C4F20102009F904208BF02276F
:1012300004F00C030F229A402BEA020207FA03F390
:101240004FEA9A051A4346F825204E68F203DEF865
:10125000002054BF22EA080242EA0802CEF8002029
:10126000DEF80420B30354BF22EA080242EA08026F
:10127000CEF80420F302DEF8082054BF22EA080268
:1012800042EA0802B302CEF80820DCF800204FF052
:10129000010354BF22EA080242EA0802CCF8002007
:1012A0000E680AF1010A36FA0AF204F1040400F0A9
:1012B0009D8003FA0AFB16EA0B08F1D04E684FF640
:1012C000FF72C1F21002964212DC122E56D8DFE8ED
:1012D00006F0350B4D4955555555555555555555F0
:1012E00055555545510000BFD1F80C9046E000BF60
:1012F0004FF6FF72C1F2210296420FDC0022C1F2CA
:10130000110296421AD00022C1F21202964215D062
:101310000022C1F22102964210D02FE00022C1F239
:10132000220296420AD00022C1F23102964205D032
:101330000022C1F23202964220D100BF8A684AB12F
:10134000012A14BFC0F814B0C0F810B04FF008095B
:1013500014E000BF4FF0040910E000BFCA6802F1BA
:1013600004090BE04FF0000908E000BFCA6802F171
:10137000080903E0CA6802F10C0900BF02462646CC
:10138000B8F5807F24BF0432203E17680F25B54092
:1013900027EA050509FA06F635431560CA79D2062B
:1013A0007FF57EAF41F21803C4F202031A68AEF56E
:1013B0007E7642F001021A601A6802F00102019280
:1013C000019A2AF0030256F802B040F60002C4F275
:1013D0000102904208D040F60042C4F2010290425D
:1013E0007FF41EAF012723E7002721E702B0BDE805
:1013F000F08F00008068084018BF0120704700008F
:1014000041F29010C2F200000068704740F23000D4
:1014100041F29011C2F20000C2F2000100780A68A5
:10142000104408607047000080B542F20000C4F22A
:101430000200016841F010010160032000F08CF807
:10144000002000F005F800F027F8002080BD000023
:1014500070B540F23006C2F2000640F23801327830
:10146000C2F200014FF47A730968B3FBF2F204464A
:10147000B1FBF2F1084600F00BFC0F2C4FF0010518
:1014800008D838B94FF0FF3021460022002500F07F
:1014900037F87460284670BD82B041F21800C4F27B
:1014A00002000168022241F001010160016801F0BF
:1014B000010101910199416841F08051416040680A
:1014C00000F08050009000980420C4F201000168F0
:1014D00062F31A61016002B070470000002848BF43
:1014E000704700F01F01012202FA01F11C2202EAFA
:1014F000D0004EF20012CEF2000281507047000080
:1015000010B54EF60C5CCEF2000CDCF80030C3F3E4
:10151000022E8EF00704042C28BF0424BEF103031E
:101520004FF0FF3E0EFA04F438BF0023A143994068
:101530000EFA03F39A43114300F00F0200F16043E7
:101540000901043A03F564436244002848BF02F1EC
:101550000C03197010BD00004EF60C51CEF20001C4
:101560000A684FF6FF031A4060F30A2242F08060D7
:1015700040F0FD700860704700F0EEFC4EF6105031
:10158000CEF200000268012922F0040202600FBFBF
:1015900030BF40BF20BF20BF70470000002804BFFD
:1015A000012070472DE9F04381B042F20008C4F2F7
:1015B00002080446D8F800000D4600F007008142FA
:1015C0000DD9D8F8000020F007002843C8F8000023
:1015D000D8F8000000F00700A84240F080802068A2
:1015E00041F204098107C4F2020917D5410705D564
:1015F000D9F8001041F4E061C9F80010010705D5E1
:10160000D9F8001041F46051C9F80010D9F8001061
:10161000A26821F0F0011143C9F80010C00755D1AC
:10162000D8F8000000F0070085420CD2D8F800007E
:1016300020F007002843C8F80000D8F8000000F0A8
:101640000700A8424BD12068410707D5D9F8001000
:10165000E26821F4E0611143C9F80010000708D5E1
:10166000D9F80000216920F4605040EAC100C9F8AF
:101670000000D9F80020C2F3810147F64000C0F213
:101680007D10DFE801F00307550300BF41F20020A1
:10169000C0F27A00D9F8001042F2D632C1F3031139
:1016A000C0F60002515C40F2380220FA01F140F22B
:1016B0003400C2F200000068C2F200021160FFF7BD
:1016C000C7FE002001B0BDE8F08300BF606859F894
:1016D000041C022808D0012826D1890306D4012041
:1016E00001B0BDE8F08300BF8901F8D5D9F800103A
:1016F00021F003010843C9F80000FFF781FE064608
:1017000041F28837D9F80000616800F00C00B0EBB6
:10171000810F3FF485AFFFF773FE801BB842F1D90C
:10172000032001B0BDE8F0838907D8D5DEE700BF0C
:1017300042F2C831C2F38344C0F60001095DD2030E
:1017400006D440F60010C0F23D004843A2E700BFB7
:10175000D9F8282042F2F23302F00F02C0F600035B
:101760009A5CD9F82830DB0304D44843B0FBF2F08C
:1017700015E000BFD9F82830D9F828704FF280065C
:10178000C7F30327C0F2FA26C3F3031307FB006075
:101790000133A0FB0101A3FB0223FEF75DFDA4F1D1
:1017A0000D01B1FA81F14909C84073E7002804BF6F
:1017B000012070472DE9F04182B00446007841F2E3
:1017C0000006C007C4F202060CD0706800F00C00DE
:1017D000042840F0A1803068800303D5A068002869
:1017E00000F0FA81207880071BD5706810F00C0F8C
:1017F00009D0706800F00C00082840F0A7807068DD
:10180000C00300F1A3803068800703D56069012818
:1018100040F0E2813068A16920F0F80040EAC100A0
:1018200030602078000733D4207840074CD4E06A39
:10183000002800F0B9817168C90308D5716801F00A
:101840000C01082903D1F16AC90300F1C5810228FE
:1018500040F0E8803068C00006D5F06A616B00F0A7
:10186000F000884240F0B8816827C4F24227002087
:101870003860FFF7C5FD05463068000140F176810C
:10188000FFF7BEFD401B64284FF00300F4D9F1E1DF
:10189000E069002800F084806820C4F24220012121
:1018A000C0F81814FFF7ACFD054600BF706A80074A
:1018B00000F18E80FFF7A4FD401B0228F6D903201B
:1018C00002B0BDE8F08100BFF0695FEAC00808D44B
:1018D000F06940F08050F061F06900F080500090B5
:1018E000009847F20007C4F200073868C00549D4E1
:1018F000386840F480703860FFF782FD054600BF0D
:101900003868C0053ED4FFF77BFD401B6428F7D93B
:10191000032002B0BDE8F081706800F00C000828D8
:1019200003D17068C0033FF556AFA1683068002945
:1019300000F0EE80B1F5A02F00F0E280B1F5803F1D
:1019400040F0FC8040F48030FEE000BF6069002879
:1019500040F26800C4F2422000F07E80012140F88D
:10196000681CFFF74DFD0546306880073FF552AF14
:10197000FFF746FD401B0228F6D9032002B0BDE860
:10198000F08100BF2169306A002900F07F800529BD
:1019900074D0012940F0928040F0010094E000BF33
:1019A0006820C4F242200021C0F81814FFF728FD77
:1019B000054600BF706A80077FF536AFFFF720FD50
:1019C000401B0228F6D9032002B0BDE8F08100BF19
:1019D00040F23800C2F20000006844F6D351C1F270
:1019E0006201A0FB0101480A019000BF00BF0198FD
:1019F000411E002801913FF417AF00BF0198411E1E
:101A0000002801913FF410AF00BF0198411E00284B
:101A100001913FF409AF00BF0198411E00280191D8
:101A2000E4D101E7F06A002120F48030F062682000
:101A3000C4F242200160FFF7E3FC05463068000174
:101A400040F1B280FFF7DCFC401B6428F6D903208C
:101A500002B0BDE8F08100BF002140F8681CFFF72C
:101A6000CFFC0546306880077FF5DBAEFFF7C8FC8A
:101A7000401B02284FF00300F4D9FBE040F00400C3
:101A80003062306A40F001001EE000BF20F001002B
:101A90003062306A20F004003062FFF7B1FC054686
:101AA00041F28837306A800720D5FFF7A9FC401B38
:101AB000B8424FF00300F5D9DCE000BF20F0010090
:101AC0003062306A20F004003062FFF799FC05466E
:101AD00041F28837306A800708D4FFF791FC401B39
:101AE000B842F7D9032002B0BDE8F081B8F1000F89
:101AF0003FF59DAEF06920F08050F06197E600BFA1
:101B000040F480203060306840F480301CE000BF3A
:101B100020F480303060306820F480203060FFF79F
:101B20006FFC0546306880037FF55CAEFFF768FC0C
:101B3000401B64284FF00300F4D99BE020F4803070
:101B40003060306820F480203060FFF759FC054693
:101B5000306880033FF546AEFFF752FC401B642817
:101B6000F6D9032002B0BDE8F08100BFF06AD4E9E5
:101B70000C1220F0F0001043F062F06A20F4706064
:101B80000843F06201203860FFF73AFC054600BFC9
:101B90003068000108D4FFF733FC401B64284FF085
:101BA0000300F5D966E000BF256A8DB1706800F0CA
:101BB0000C00082814D1012D0ED07068616A00F461
:101BC00080328A4208D1A16A00F47010884203D1A1
:101BD000002002B0BDE8F081012002B0BDE8F08134
:101BE0006827C4F24227002047F8080CFFF708FCDA
:101BF000022D05460CD100BF3068800114D5FFF7D7
:101C0000FFFB401B02284FF00300F5D932E000BF74
:101C100030688001DCD5FFF7F3FB401B02284FF052
:101C20000300F5D926E000BF606AB0F5803F09D116
:101C3000F16A6268E3681143F162F16A21F00F0111
:101C40001943F1627168A26A21F4741111430843C7
:101C50007060012047F8080CFFF7D2FB044600BF74
:101C600030688001B4D4FFF7CBFB001B02284FF093
:101C70000300F5D902B0BDE8F08100004EF210007B
:101C8000CEF20000016841F00201016070470000DF
:101C9000411E0020B0EB116F1CBF012070474EF2B7
:101CA0001002CEF2000251604EF62351CEF2000136
:101CB000F0230B7007219060116070474EF2100006
:101CC000CEF20000016821F00201016070470000BF
:101CD000FEE7000041EA0002012A82BF0020C0B2F4
:101CE000704740F2A802C2F2000202EB41010A185A
:101CF000085C1179401A403081B200EB912121F04B
:101D00003F01401AC0B2704710B541F2C80046F218
:101D10000041C2F20000C4F20001042200234FF08F
:101D2000012480E80E0000F10C014FF4602C4FF408
:101D3000801E81E8085084618383FEF7D9FE002865
:101D400008BF10BDBDE81040FEF714BC10B541F24D
:101D50002C1046F60001C2F20000C4F20001042279
:101D600000234FF0012480E80E0000F10C014FF435
:101D7000602C4FF4801E81E8085084618383FEF755
:101D8000B7FE002808BF10BDBDE81040FEF7F2BB4B
:101D9000F0B585B0002641F21800CDE90366CDE923
:101DA0000166C4F20200016840F6000441F020011F
:101DB00001600168C4F2010401F020010091009962
:101DC000016801AD41F0040101600168012701F0E3
:101DD000040100910099016841F01001016001685F
:101DE00001F0100100910099016841F008010160C3
:101DF0000068294600F00800009000984FF4004069
:101E0000CDE9010620460397FFF7EAF94FF4E050C9
:101E100001A9C1C104F500602946FFF7E1F905B049
:101E2000F0BD0000FEE70000FEE700007047000084
:101E300041EA0003012B84BF0320704780B540F2C4
:101E4000A803C2F2000303EB410303EB000C1CF8F0
:101E500004EF1B5C9E4504BF022080BD40F2C2031C
:101E60009CF800E0C2F2000303EBC12101EB8020EB
:101E70004FEA0E11415800EB0E1011604168C36823
:101E80008068D360906051609CF80000013000F0E1
:101E90003F008CF80000002080BD000041EA0003F4
:101EA000012B84BF03207047B0B540F2A80CC2F2EA
:101EB000000C0CEB410313F800E01D180EF10103B8
:101EC0002C7903F03F03A34208D10CEB810101EB15
:101ED00040000189013101810120B0BD40F2C204FE
:101EE000C2F200042B7804EBC12101EB802000EB4F
:101EF00003114FEA031C14685368D2F808E0D26853
:101F000040F80C404B60C1F808E0CA602878013006
:101F100000F03F0028700020B0BD000070470000B6
:101F2000FFF774BA70470000FEE700004EF60C5051
:101F3000BFF34F8FCEF200000168042201F4E0618C
:101F4000C0F2FA5211430160BFF34F8F00BF00BFD0
:101F500000BF00BFFAE700004EF60C50BFF34F8FF2
:101F6000CEF200000168042201F4E061C0F2FA52EE
:101F700011430160BFF34F8F00BF00BF00BF00BF20
:101F8000FAE700000A46096840F2693399421DDC0D
:101F9000B1F5837F34D040F2063081422ED1107BE0
:101FA00040F2B80140F2000C2838C2F20001C2F23F
:101FB000000C88808CF81C000CF11002030A002031
:101FC00000218CF81D30FFF769BF00BF40F2966317
:101FD000994239D040F26A30814218BF704740F2CE
:101FE000B800527AC2F2000000214180C2F34011D1
:101FF000017040F20000C2F200000172704700BFA1
:10200000B2F90C004DF2957240F2B801CFF6FF72B2
:10201000C2F200014243C88000EB124082B200B21B
:10202000001140F2000C00EBD230C2F2000C08812B
:102030008CF828000CF12002030A002000218CF803
:102040002930FFF72BBF00BF002100280CBF012063
:102050000020FFF723BF000094B0FFF7E5F9092047
:1020600006904FF48030022508900790CDE90E507D
:102070004FF4E010CDE910054FF4C0600421129038
:102080004020002409910121139006A80C94CDE969
:102090000A440B910D91FFF789FB20B1EFF31080FB
:1020A00072B6FFF769FA0F20CDE901058020CDE96E
:1020B000030401A802210594FFF770FA20B1EFF3A1
:1020C000108072B6FFF758FA7020C4F24220012146
:1020D000016042F2E6314FF2E870C0F60001C1F64D
:1020E000FF700C22FEF730F9002840F0D980FFF78E
:1020F0004FFEFFF709FEFFF729FE41F20004C4F28C
:10210000010420464FF48051FFF774F920464FF444
:102110000061FFF76FF920464FF48061FFF76AF91D
:10212000A4F500604FF40041FFF764F941F2C808DC
:10213000C2F2000840F6AD62C0F600024046062139
:10214000FEF758FE41F20502C0F6000240460821A3
:10215000FEF750FE41F22C15C2F2000540F659720E
:10216000C0F6000228460621FEF744FE41F2AD0209
:10217000C0F6000228460821FEF73CFE4046FEF766
:102180009DF92846FEF79AF940F2A007C2F200072F
:1021900000244FF01A0906AEFFF732F97968401AA9
:1021A000C82853D3FFF72CF9786000F005F9002018
:1021B00000F078F8012000F075F800200121FFF709
:1021C00089FD78B901200121FFF784FD50B9002075
:1021D0000021FFF77FFD28B901200021FFF77AFDDC
:1021E00010B100BF3C7031E038780130C1B21A291B
:1021F00038702BD34046FEF743FB032812D1284604
:10220000FEF73EFB03280DD1FFF758FD002001210A
:10221000FFF7B4F9FFF732FD3C70FFF7F1F8786093
:1022200014E000BF87F8009010E000BF00200121FB
:1022300032463C70FFF7FCFD00203146FFF7A2FE5E
:10224000002000F02FF8012000F02CF800200121E0
:10225000FFF740FD0028E9D110E000BF0120012177
:1022600032463C70FFF7E4FD01203146FFF78AFE5D
:10227000002000F017F8012000F014F801200121DF
:10228000FFF728FD0028E9D1002000F00BF801201D
:1022900000F008F8D8F800008069286880697BE7BA
:1022A000FFF744FE012888BF70472DE9F04F8DB03D
:1022B00040F2A809C2F2000909EB0006824619F8AB
:1022C00000003179401A403081B200EB912101F0D9
:1022D000C001401A000667D035A050F82AB040F27D
:1022E000C200C2F2000000EB8A2804AD0DE000BF7E
:1022F00019F80A003179401A403081B200EB91217F
:1023000001F0C001401A00064ED05846FEF7B8FA58
:10231000002849D0307919F80A10884244D0307921
:102320002C4608EB00114B79000158F80020087981
:102330008F79002B18BF0123CD68896844F82320CA
:102340000A919900082802460B952546069128BF58
:102350000822002108928DF82410039102911FB1E8
:102360000220079006E000BF079118B102A80AA951
:10237000FEF735F85846294602AA01ABFEF718F9D0
:1023800090B9307919F80A108842B1D0307908EB49
:102390000010C1688068CDE90A013079013000F091
:1023A0003F003071A4E700BF0DB0BDE8F04F7047AB
:1023B000C81000202C11002040F20002C2F20002DE
:1023C00000200021FFF76ABD000004050607080988
:1023D00000000000000D00000000000000000102ED
:1023E000030406070809334455661122334477660F
:1023F00055440102030405060708090A0B0C0D0EDB
:102400000F100000282400080000002040000000F9
:10241000B40100086824000840000020581700009C
:10242000D401000800000000D08F0018080100004F
:10243000000000000000000026010000080000006D
:10244000000000000000000057020000080000002B
:10245000000000000000000001000000100000006B
:082460000024F400000000005C
:04000005080001519D
:00000001FF
