:020000040800F2
:10000000500B002019020008BD1D0008591C0008F3
:10001000B91D00080D050008AD1E00080000000015
:10002000000000000000000000000000A11E000809
:100030005905000800000000C11D0008A51E0008A9
:1000400033020008330200083302000833020008BC
:1000500033020008330200083302000833020008AC
:10006000330200083302000833020008330200089C
:10007000330200083302000833020008330200088C
:100080003302000833020008330200082905000883
:10009000110500081D05000833020008330200089E
:1000A000330200083302000833020008330200085C
:1000B000330200083302000833020008330200084C
:1000C000330200083302000833020008330200083C
:1000D000330200083302000833020008330200082C
:1000E0003302000833020008330200080000000059
:1000F0000000000000000000000000000000000000
:100100000000000000000000330200083302000875
:1001100033020008330200083302000833020008EB
:1001200033020008330200083302000833020008DB
:100130003302000800000000000000004D05000828
:1001400035050008410500083302000833020008A5
:1001500000F002F800F050F814A696E8000CB24443
:10016000B344DA4501D100F047F8BAE80F000FA612
:1001700096E83000A5EB040504EB0607AAEB07049C
:10018000A7F101074FEA15154FEA3414A4F1010451
:10019000AC4201D300F030F813F0010F18BFFB1A86
:1001A00043F0010300F001F8DBE718476C20000082
:1001B0008C200000103A24BF78C878C1FAD85207C2
:1001C00024BF30C830C144BF04680C6070470000D1
:1001D000704700000023002400250026103A28BFA5
:1001E00078C1FBD8520728BF30C148BF0B607047A9
:1001F0001FB51FBD10B510BD00F026F91146FFF761
:10020000F7FF01F089FE00F044F903B4FFF7F2FFB5
:1002100003BC00F04BF9000009488047094800473B
:10022000FEE7FEE7FEE7FEE7FEE7FEE7FEE7FEE7A6
:10023000FEE7FEE704480549054A064B7047000003
:10024000A91E00085101000850050020500B002095
:10025000500700205007002053EA020C00F069808C
:100260002DE9F04B4FF00006002B1FBFB3FA83F5CA
:1002700003FA05F424FA05F65E4012BF1643B2FAFB
:1002800082F502FA05F4C5F120051EBF22FA05FC2D
:1002900044EA0C04203556EA044C4FEA144418BFD3
:1002A000641C4FF000084FF00009904271EB030C02
:1002B00039D3002919BFB1FA81F701FA07F6B0FA6C
:1002C00080F700FA07F6C7F120071EBF20FA07FCE7
:1002D00046EA0C062037B6FBF4FCA7EB0507103FF7
:1002E00007F01F0BCBF120062CFA06F60CFA0BFBDD
:1002F00044BFB3460026202FA4BF5E464FF0000B3C
:100300005BEA060C08BF4FF0010B19EB0B0948EB39
:100310000608ABFB027C06FB02CC0BFB03CCC01B2C
:1003200071EB0C01C1E70B46024641464846BDE869
:10033000F08B13B5084318BF4FF0FF300146AFF301
:100340000080BDE81C40704740EA010370B59B0780
:100350002ED14FF00136042A2AD308C810C99D1B9C
:100360009D43121F15EAC61517D0D8B2E1B2401A44
:1003700050EA056110D198B2A1B2401A50EA054185
:100380000AD123F07F4024F07F41401A50EA052132
:1003900002D1180EA0EB146070BDA342DBD018BAD6
:1003A00021BA884201D9012070BD4FF0FF3070BDE5
:1003B0000AB9002070BD10F8013B11F8014B63B180
:1003C000A3420AD1521E08D010F8013B11F8014B8C
:1003D0001BB1A34201D1521EEDD1181B70BD10B547
:1003E000203AC0F00B80B1E81850A0E81850B1E8EE
:1003F0001850A0E81850203ABFF4F5AF5FEA027C2D
:1004000024BFB1E81850A0E8185044BF18C918C05C
:10041000BDE810405FEA827C24BF51F8043B40F8FD
:10042000043B08BF7047D20728BF31F8023B48BFE2
:1004300011F8012B28BF20F8023B48BF00F8012B20
:100440007047704770477047754600F02BF8AE460E
:1004500005006946534620F00700854618B020B5D0
:10046000FFF7E8FEBDE820404FF000064FF0000720
:100470004FF000084FF0000BAC46ACE8C009ACE808
:10048000C009ACE8C009ACE8C00921F007018D46FD
:10049000704710B50446AFF300802046BDE8104019
:1004A000FFF7B3BE00487047100000200149182034
:1004B000ABBEFEE7260002007047000010B58AB010
:1004C000044600200121CDE90500CDE90000CDE979
:1004D00002000490CDE9071109906946204600F01A
:1004E000BBF8002818BF00F039F8204600F000FEE5
:1004F000002818BF00F032F82046132100F034F82D
:10050000002818BF00F02AF80AB010BDFEE700006E
:1005100040F28440C2F2000000F0BAB940F28440D8
:10052000C2F2000000F0B4B940F28440C2F2000010
:1005300000F0AEB940F2E840C2F2000000F0A8B905
:1005400040F2E840C2F2000000F0A2B940F2E840F8
:10055000C2F2000000F09CB970470000EFF3108079
:1005600072B600F0CDBF000090F82020013A012AB9
:1005700008D8006800F114020020136819431160C4
:10058000704700BF00F1240201204FF4802113685E
:100590001943116070470000B0B590F820E0D0F822
:1005A00000C0AEF1010EBEF1010FDCF808E011D879
:1005B0001EF0E05F18D0CEF3016EBEF1030F1DD127
:1005C00000F1240301204FF400011A68114319605F
:1005D000B0BD00BF00F1240301204FF480211A6850
:1005E00011431960B0BD00BF00F1240301204FF496
:1005F00000111A6811431960B0BD00BF012000FA54
:100600000EF01860886838B14B68CC6844EAC303C0
:1006100043EA000504E000BF0868CB6843EA4055A0
:100620000CF5C0744FEA0E10255004EB0E130D6943
:10063000184640F8045F097D012903D1016841F49F
:100640008071016050680121D860106898600020B6
:100650001A6811431960B0BD90F82020013A012AB0
:1006600030D8B0B546F20060C4F20000026842F033
:1006700001020260026822F47C520260D1F814E0A8
:10068000CC694A6A0368012C43EA022202600EF038
:100690001F024FF0010303FA02F2C3696FEA020C72
:1006A00023EA0203C36113D02CBBC36803EA0C0323
:1006B000C360CB688C8844EA034300EBCE04236418
:1006C0000B4611E0416A41F48021416201207047EC
:1006D000C3681343C3600B688C8844EA034300EB90
:1006E000CE04236401F10C038C681B8843EA0443A5
:1006F00000EBCE04636443688D6943EA0204D1F8D9
:1007000010E0096A002D08BF03EA0C044460436945
:10071000BEF1000F43EA020408BF03EA0C040129FA
:10072000446102D1C1691143C161016821F0010135
:1007300001600020B0BD00007047000010B590F8C7
:1007400020C0ACF1010CBCF1010F79D8D0F800C089
:1007500000290CBFDCF80CE0DCF810E05FEA8E7ECC
:1007600078D00CF5D87C4FEA011E5CF80E4014F0EE
:10077000040494605CF80EE00CEB011C19BF4FEA16
:10078000DE0454604FEA5E541460DCF80040002937
:1007900004F00204D460DCF8044004F00F04146197
:1007A000DCF80440C4F307249461DCF804404FEA09
:1007B00014445461DCF808201A70026802EB01123C
:1007C000D2F8B8214FEA12225A70026802EB0112E5
:1007D000D2F8B8214FEA12429A70026802EB011275
:1007E000D2F8B8214FEA1262DA70026802EB011205
:1007F000D2F8BC211A71026802EB0112D2F8BC21B6
:100800004FEA12225A71026802EB0112D2F8BC219F
:100810004FEA12429A71026802EB0112D2F8BC212F
:100820004FEA1262DA7100680CBF00F10C0100F1AE
:100830001001002020220B681A430A6010BD00BF7F
:1008400000F1240101204FF480220B681A430A6052
:1008500010BD00BF00F1240101204FF400120B680D
:100860001A430A6010BD000090F8201001390129D8
:1008700084BF002070470068816882688068C1F387
:100880008061C2F3C0621144C0F300700844704735
:100890002DE9F04F81B0044600684669D0F8049015
:1008A0008768D0F80CB0D0F810A0D0F81880F10705
:1008B00004D1002530071CD423E000BFF9070FD076
:1008C0000121BA07816007D4780700F1A7803807B3
:1008D00000F1AE80342000E02820215820468847CF
:1008E0000025F80500F18680F80300F1AA803007A2
:1008F00007D51BF0100004D0206845F400751021C6
:10090000C160700708D51BF0080005D02068616C35
:100910000822C26020468847B00706D52068C06814
:10092000800702D0216C20468847700607D51AF050
:10093000100004D0206845F4806510210161B006E4
:1009400008D51AF0080005D02068E16C0822026181
:1009500020468847F00606D520680069800702D047
:10096000A16C20468847B00308D519F0100005D0C7
:100970002068216D1022426020468847F00308D588
:1009800019F0080005D02068616D082242602046F9
:100990008847300440F190805FEA497040F18980D7
:1009A00006F4807008EA102028435FEA8871014647
:1009B00048BF41F00201B20558BF01465FEA4870E6
:1009C0000D4648BF45F00405700558BF0D4630057B
:1009D00040F16F8018F070006BD0103800090528C6
:1009E00062D8DFE800F0035B53574F5F45F008051E
:1009F0005AE000BF20684FF48071BA05816005D4C9
:100A000078050FD4380517D4A16B00E0E16A2046C1
:100A10008847F8037FF56BAF13E000BF4FF4006524
:100A20005FE700BF05F50055F8037FF560AF08E00C
:100A30004FF4805555E700BF05F58045F8037FF575
:100A400056AF20684FF48031BA03816006D4780332
:100A50000CD4380310D4E16B01E000BF216B2046B9
:100A6000884730073FF545AF4BE700BF05F5004528
:100A700030073FF53EAF44E705F5803530073FF5D9
:100A800038AF3EE745F080050EE000BF45F0200599
:100A90000AE000BF45F0400506E000BF45F0100544
:100AA00002E000BF45F480752068816921F0700183
:100AB000816120680421416055B1606AA16D40EAFE
:100AC00005022046626201B0BDE8F04F084700BF52
:100AD00001B0BDE8F08F0000002804BF012070477E
:100AE0002DE9F041044690F82000002849D141F258
:100AF000DD0141F2511541F2591241F2E108C0F60F
:100B00000001C0F60005C0F6000241F2611341F297
:100B10005D10C0F60008C0F6000341F24D1641F228
:100B20005517C0F60000C4E90A5204F130026164AE
:100B3000E16D41F2E90C41F2E50EC0F60006C0F6A7
:100B40000007C8C2C4E90F0841F2ED0041F2651286
:100B500040F23973C0F6000CC0F6000EC0F600007B
:100B6000C0F60002C0F60003C4E912CE206562653B
:100B7000A36521B940F66141C0F60001E165204658
:100B800088472068016841F00101016000F0FCFB2A
:100B9000054600BF20684168C90705D100F0F4FB95
:100BA000401B0B28F6D310E0016821F00201016020
:100BB00000F0EAFB054600BF2068416889070FD5B1
:100BC00000F0E2FB401B0B28F6D3606A052140F4DD
:100BD00000306062012084F82010BDE8F08100BF81
:100BE000217E0268012922F0800208BF8032026063
:100BF000617E0268012922F0400208BF4032026093
:100C0000A17E0268012922F0200208BF2032026082
:100C1000E17E0268012922F0100218BF1032026042
:100C2000217F0268012922F0080208BF0832026011
:100C3000617F0268012922F0040208BF04320260C9
:100C4000271D8ECF66691A433A4332430139114357
:100C5000C16100200121606284F82010BDE8F081AC
:100C600070B586B0006846F60001C4F20001884203
:100C70004FF00001CDE90411CDE9021146D046F252
:100C80000041C4F20001884240F0A58040F280415A
:100C9000C2F200010A6841F21C00C4F20200531CB7
:100CA0000B6042B9016841F000710160016801F018
:100CB00000710191019950F8041C40F6000441F0C4
:100CC000040140F8041C50F8040CC4F2010400F0C4
:100CD0000400019001984FF400600290002002ADE2
:100CE000CDE903002046294600F03EFA4FF480503B
:100CF000029002200390032005902046294600F030
:100D000033FA1525142413264DE000BF41F21C00D0
:100D1000C4F20200016841F080610160016801F0E5
:100D200080610191019940F28041C2F200010A689C
:100D3000531C0B6042B9016841F000710160016809
:100D400001F000710191019950F8041C02AE41F0CC
:100D5000080140F8041C50F8040C314600F008006B
:100D600001900198202002900020CDE9030040F678
:100D70000000C4F2010000F58065284600F0F4F997
:100D80000220039003204024059028463146029417
:100D900000F0EAF90420C4F201000168412541F0A5
:100DA000E8613F26016030460021002200F06CFB24
:100DB000304600F057FB20460021002200F064FB83
:100DC000204600F04FFB28460021002200F05CFB8B
:100DD000284600F047FB06B070BD0000BAB190F89D
:100DE0002030012B10D10E2911D8DFE801F0093F86
:100DF00033372743473B4F2F4B232B1B1F0000BF8D
:100E000082620020704700BF90F8203033B1416A01
:100E100041F4800141620120704700BF0E2905D0D6
:100E20000D29F4D1C2650020704700BF0266002082
:100E3000704700BF42650020704700BF82630020FA
:100E4000704700BF82650020704700BFC264002069
:100E5000704700BF02630020704700BF426300205C
:100E6000704700BF42640020704700BFC26200208C
:100E7000704700BFC2630020704700BF02640020BB
:100E8000704700BF02650020704700BF82640020E9
:100E90007047000070B58CB005AC03AB0021224652
:100EA000FFF74CFCDDE90760042E08BF0434256819
:100EB0009DF82440022801D1012006E024B16846B3
:100EC00003A92246FFF78BFA002040F27801C2F214
:100ED00000018A788B79013202F00F029A421DD00C
:100EE000321F8B7840F28006B2FA82F2C2F200061C
:100EF000520906EB031383F8052283F80602DDE9A5
:100F00000020C3F8005283F80442C3F80C02C3F86F
:100F100008228878013000F00F008870002001F06E
:100F2000F3F80CB070BD000070B58CB005AC03AB2D
:100F300000212246FFF702FCDDE90760042E08BF0E
:100F4000043425689DF82440022801D1012006E0E0
:100F500024B1684603A92246FFF741FA002040F277
:100F60007801C2F20001CA78CB79013202F00F0297
:100F70009A421DD0321FCB7840F28006B2FA82F23C
:100F8000C2F20006520906EB031383F8052383F827
:100F90000603DDE90020C3F8005383F80443C3F8D7
:100FA0000C03C3F80823C878013000F00F00C870A4
:100FB000012001F0A9F80CB070BD0000F0B58BB0B5
:100FC00004AC02AB012122460127FFF7B7FBDDE9A4
:100FD0000660042E08BF043425689DF820400228CE
:100FE00006D024B1684602A92246FFF7F8F9002787
:100FF00040F27800C2F2000081788279013101F07C
:101000000F0191421DD0311F827840F28003B1FA66
:1010100081F1C2F20003490903EB021282F80512C2
:10102000DDE90031C2F8005282F8044282F806720B
:10103000C2F80C12C2F808328178013101F00F01B8
:101040008170002001F060F80BB0F0BDF0B58BB0FE
:1010500004AC02AB012122460127FFF76FFBDDE95B
:101060000660042E08BF043425689DF8204002283D
:1010700006D024B1684602A92246FFF7B0F900273E
:1010800040F27800C2F20000C178C279013101F06B
:101090000F0191421DD0311FC27840F28003B1FA96
:1010A00081F1C2F20003490903EB021282F8051331
:1010B000DDE90031C2F8005382F8044382F8067378
:1010C000C2F80C13C2F80833C178013101F00F01E6
:1010D000C170012001F018F80BB0F0BD704700009E
:1010E0007047000070470000704700007047000024
:1010F000B0B5044690F8200001281DD1022084F8E4
:1011000020002068016821F00101016000F03CF935
:10111000054600BF20684068C00713D000F034F9CE
:10112000401B0B28F6D3606A40F400306062052053
:1011300084F820000120B0BD606A40F400206062A5
:101140000120B0BD00206062B0BD0000704700000B
:1011500070470000704700007047000070470000B3
:1011600070470000704700002DE9F04F82B00E6814
:10117000002E00F0FF8040F20C4C40F2004E41F295
:101180000042C4F2010CC4F2010EC4F201020427B1
:10119000002401234FF0000A4FF00009904208BFDD
:1011A0000327009749E000BF41F20002C4F20102A8
:1011B000009F904208BF022704F00C030F229A40C0
:1011C0002BEA020207FA03F34FEA9A051A4346F89C
:1011D00025204E68F203DEF8002054BF22EA080200
:1011E00042EA0802CEF80020DEF80420B30354BF20
:1011F00022EA080242EA0802CEF80420F302DEF8EE
:10120000082054BF22EA080242EA0802B302CEF8DC
:101210000820DCF800204FF0010354BF22EA080246
:1012200042EA0802CCF800200E680AF1010A36FAF8
:101230000AF204F1040400F09D8003FA0AFB16EAA6
:101240000B08F1D04E684FF6FF72C1F210029642C1
:1012500012DC122E56D8DFE806F0350B4D495555F5
:10126000555555555555555555555545510000BF82
:10127000D1F80C9046E000BF4FF6FF72C1F2210298
:1012800096420FDC0022C1F2110296421AD00022CF
:10129000C1F21202964215D00022C1F221029642FA
:1012A00010D02FE00022C1F2220296420AD0002282
:1012B000C1F23102964205D00022C1F232029642BA
:1012C00020D100BF8A684AB1012A14BFC0F814B007
:1012D000C0F810B04FF0080914E000BF4FF0040947
:1012E00010E000BFCA6802F104090BE04FF00009EA
:1012F00008E000BFCA6802F1080903E0CA6802F109
:101300000C0900BF02462646B8F5807F24BF043290
:10131000203E17680F25B54027EA050509FA06F6AD
:1013200035431560CA79D2067FF57EAF41F21803C6
:10133000C4F202031A68AEF57E7642F001021A602A
:101340001A6802F001020192019A2AF0030256F88B
:1013500002B040F60002C4F20102904208D040F60A
:101360000042C4F2010290427FF41EAF012723E73E
:10137000002721E702B0BDE8F08F00008068084038
:1013800018BF01207047000040F24C50C2F200002C
:101390000068704740F2000040F24C51C2F2000079
:1013A000C2F2000100780A6810440860704700002B
:1013B00080B542F20000C4F20200016841F0100161
:1013C0000160032000F08CF8002000F005F800F028
:1013D00027F8002080BD000070B540F20006C2F280
:1013E000000640F208013278C2F200014FF47A732D
:1013F0000968B3FBF2F20446B1FBF2F1084600F0D3
:101400000BFC0F2C4FF0010508D838B94FF0FF3016
:1014100021460022002500F037F87460284670BD90
:1014200082B041F21800C4F202000168022241F0C9
:1014300001010160016801F0010101910199416818
:1014400041F080514160406800F080500090009869
:101450000420C4F20100016862F31A61016002B065
:1014600070470000002848BF704700F01F010122AC
:1014700002FA01F11C2202EAD0004EF20012CEF272
:10148000000281507047000010B54EF60C5CCEF2A1
:10149000000CDCF80030C3F3022E8EF00704042C9D
:1014A00028BF0424BEF103034FF0FF3E0EFA04F4FC
:1014B00038BF0023A14399400EFA03F39A43114326
:1014C00000F00F0200F160430901043A03F56443A0
:1014D0006244002848BF02F10C03197010BD0000DF
:1014E0004EF60C51CEF200010A684FF6FF031A4087
:1014F00060F30A2242F0806040F0FD70086070479F
:1015000000F0ECFC4EF61050CEF20000026801290B
:1015100022F0040202600FBF30BF40BF20BF20BFD7
:1015200070470000002804BF012070472DE9F043F8
:1015300081B042F20008C4F202080446D8F8000064
:101540000D4600F0070081420DD9D8F8000020F0C8
:1015500007002843C8F80000D8F8000000F0070092
:10156000A84240F08080206841F204098107C4F25B
:10157000020917D5410705D5D9F8001041F4E061FB
:10158000C9F80010010705D5D9F8001041F46051E1
:10159000C9F80010D9F80010A26821F0F001114339
:1015A000C9F80010C00755D1D8F8000000F00700B6
:1015B00085420CD2D8F8000020F007002843C8F874
:1015C0000000D8F8000000F00700A8424BD12068C6
:1015D000410707D5D9F80010E26821F4E061114312
:1015E000C9F80010000708D5D9F80000216920F4D7
:1015F000605040EAC100C9F80000D9F80020C2F3E9
:10160000810147F64000C0F27D10DFE801F00307DA
:10161000550300BF41F20020C0F27A00D9F8001053
:1016200042F2EA12C1F30311C0F60002515C40F22B
:10163000080220FA01F140F20400C2F20000006842
:10164000C2F200021160FFF7C7FE002001B0BDE842
:10165000F08300BF606859F8041C022808D00128F4
:1016600026D1890306D4012001B0BDE8F08300BF74
:101670008901F8D5D9F8001021F003010843C9F811
:101680000000FFF781FE064641F28837D9F80000D6
:10169000616800F00C00B0EB810F3FF485AFFFF7FD
:1016A00073FE801BB842F1D9032001B0BDE8F0837E
:1016B0008907D8D5DEE700BF42F2DC11C2F38344CC
:1016C000C0F60001095DD20306D440F60010C0F256
:1016D0003D004843A2E700BFD9F8282042F2062384
:1016E00002F00F02C0F600039A5CD9F82830DB0341
:1016F00004D44843B0FBF2F015E000BFD9F828301D
:10170000D9F828704FF28006C7F30327C0F2FA26F3
:10171000C3F3031307FB00600133A0FB0101A3FB2C
:101720000223FEF799FDA4F10D01B1FA81F14909F7
:10173000C84073E7002804BF012070472DE9F0413D
:1017400082B00446007841F20006C007C4F20206E7
:101750000CD0706800F00C00042840F0A1803068C4
:10176000800303D5A068002800F0FA812078800764
:101770001BD5706810F00C0F09D0706800F00C00D9
:10178000082840F0A7807068C00300F1A38030688B
:10179000800703D56069012840F0E2813068A169C3
:1017A00020F0F80040EAC10030602078000733D410
:1017B000207840074CD4E06A002800F0B9817168B5
:1017C000C90308D5716801F00C01082903D1F16A39
:1017D000C90300F1C581022840F0E8803068C000EC
:1017E00006D5F06A616B00F0F000884240F0B881E5
:1017F0006827C4F2422700203860FFF7C5FD054680
:101800003068000140F17681FFF7BEFD401B64287F
:101810004FF00300F4D9F1E1E069002800F0848082
:101820006820C4F242200121C0F81814FFF7ACFD73
:10183000054600BF706A800700F18E80FFF7A4FDA7
:10184000401B0228F6D9032002B0BDE8F08100BF9A
:10185000F0695FEAC00808D4F06940F08050F06198
:10186000F06900F080500090009847F20007C4F241
:1018700000073868C00549D4386840F48070386083
:10188000FFF782FD054600BF3868C0053ED4FFF76C
:101890007BFD401B6428F7D9032002B0BDE8F0812E
:1018A000706800F00C00082803D17068C0033FF591
:1018B00056AFA1683068002900F0EE80B1F5A02F86
:1018C00000F0E280B1F5803F40F0FC8040F48030D1
:1018D000FEE000BF6069002840F26800C4F24220C8
:1018E00000F07E80012140F8681CFFF74DFD0546A1
:1018F000306880073FF552AFFFF746FD401B0228D6
:10190000F6D9032002B0BDE8F08100BF2169306A3A
:10191000002900F07F80052974D0012940F09280D1
:1019200040F0010094E000BF6820C4F24220002192
:10193000C0F81814FFF728FD054600BF706A80073D
:101940007FF536AFFFF720FD401B0228F6D90320B4
:1019500002B0BDE8F08100BF40F20800C2F2000012
:10196000006844F6D351C1F26201A0FB0101480AAC
:10197000019000BF00BF0198411E002801913FF473
:1019800017AF00BF0198411E002801913FF410AF2E
:1019900000BF0198411E002801913FF409AF00BF2C
:1019A0000198411E00280191E4D101E7F06A00216D
:1019B00020F48030F0626820C4F242200160FFF71A
:1019C000E3FC05463068000140F1B280FFF7DCFC23
:1019D000401B6428F6D9032002B0BDE8F08100BFA7
:1019E000002140F8681CFFF7CFFC054630688007EF
:1019F0007FF5DBAEFFF7C8FC401B02284FF0030069
:101A0000F4D9FBE040F004003062306A40F001009D
:101A10001EE000BF20F001003062306A20F00400B8
:101A20003062FFF7B1FC054641F28837306A800723
:101A300020D5FFF7A9FC401BB8424FF00300F5D9B1
:101A4000DCE000BF20F001003062306A20F00400CA
:101A50003062FFF799FC054641F28837306A80070B
:101A600008D4FFF791FC401BB842F7D9032002B01D
:101A7000BDE8F081B8F1000F3FF59DAEF06920F0B0
:101A80008050F06197E600BF40F4802030603068FD
:101A900040F480301CE000BF20F4803030603068BB
:101AA00020F480203060FFF76FFC0546306880032B
:101AB0007FF55CAEFFF768FC401B64284FF0030025
:101AC000F4D99BE020F480303060306820F480202E
:101AD0003060FFF759FC0546306880033FF546AE9D
:101AE000FFF752FC401B6428F6D9032002B0BDE882
:101AF000F08100BFF06AD4E90C1220F0F00010432E
:101B0000F062F06A20F470600843F06201203860EF
:101B1000FFF73AFC054600BF3068000108D4FFF724
:101B200033FC401B64284FF00300F5D966E000BF8A
:101B3000256A8DB1706800F00C00082814D1012DC1
:101B40000ED07068616A00F480328A4208D1A16ABE
:101B500000F47010884203D1002002B0BDE8F0818B
:101B6000012002B0BDE8F0816827C4F242270020BE
:101B700047F8080CFFF708FC022D05460CD100BF02
:101B80003068800114D5FFF7FFFB401B02284FF09F
:101B90000300F5D932E000BF30688001DCD5FFF7E3
:101BA000F3FB401B02284FF00300F5D926E000BFED
:101BB000606AB0F5803F09D1F16A6268E368114359
:101BC000F162F16A21F00F011943F1627168A26AB2
:101BD00021F47411114308437060012047F8080C88
:101BE000FFF7D2FB044600BF30688001B4D4FFF792
:101BF000CBFB001B02284FF00300F5D902B0BDE873
:101C0000F08100004EF21000CEF20000016841F0B9
:101C10000201016070470000411E0020B0EB116F0F
:101C20001CBF012070474EF21002CEF2000251603C
:101C30004EF62351CEF20001F0230B700721906085
:101C4000116070474EF21000CEF20000016821F0E2
:101C50000201016070470000FEE7000040F27802D8
:101C6000C2F2000202EB41021118125C084610F8A1
:101C7000043F9A4202BF0020C0B270470A7803783E
:101C80009A4205D909780078081AC0B2704700BF97
:101C900000780978081A1030C0B2704710B540F2C9
:101CA000844046F20041C2F20000C4F20001042266
:101CB00000234FF0012480E80E0000F10C014FF4E6
:101CC000602C4FF4801E81E8085084618383FEF706
:101CD00003FF002808BF10BDBDE81040FEF73EBC62
:101CE00010B540F2E84046F60001C2F20000C4F22E
:101CF0000001042200234FF0012480E80E0000F1CF
:101D00000C014FF4602C4FF4801E81E80850846170
:101D10008383FEF7E1FE002808BF10BDBDE8104038
:101D2000FEF71CBCF0B585B0002641F21800CDE9E5
:101D30000366CDE90166C4F20200016840F60004C2
:101D400041F0200101600168C4F2010401F02001AA
:101D500000910099016801AD41F004010160016842
:101D6000012701F0040100910099016841F0100180
:101D70000160016801F0100100910099016841F0D3
:101D8000080101600068294600F0080000900098F2
:101D90004FF40040CDE9010620460397FFF7E4F930
:101DA0004FF4E05001A9C1C104F500602946FFF7D6
:101DB000DBF905B0F0BD0000FEE70000FEE7000023
:101DC0007047000080B540F27803C2F2000303EBD5
:101DD000410303EB000C1CF804EF1B5C9E4504BFA1
:101DE000022080BD40F280039CF800E0C2F20003B4
:101DF00003EB412101EB00204FEA0E11415800EBAB
:101E00000E10116041688368C06851609360D060B3
:101E10009CF80000013000F00F008CF8000000205A
:101E200080BD0000B0B5012884BF0320B0BD40F2E2
:101E30007803C2F2000303EB41031C5C03EB000CCC
:101E400001349CF8043004F00F049C4204D10124B6
:101E500000F05AF92046B0BD40F28004C2F20004FE
:101E60009CF8003004EB412101EB002101EB03144D
:101E70004FEA031E1368556841F80E30656091689B
:101E8000D268A160E2609CF800100024013101F0EA
:101E90000F018CF8001000F037F92046B0BD0000AB
:101EA00070470000FFF776BA70470000FEE70000B9
:101EB0004EF60C50BFF34F8FCEF2000001680422A3
:101EC00001F4E061C0F2FA5211430160BFF34F8F99
:101ED00000BF00BF00BF00BFFAE700004EF60C5085
:101EE000BFF34F8FCEF200000168042201F4E061DD
:101EF000C0F2FA5211430160BFF34F8F00BF00BF21
:101F000000BF00BFFAE70000B0FA80F00A464009BF
:101F10000021FFF787BF000094B0FFF749FA0920BE
:101F200006904FF48030022508900790CDE90E50BE
:101F30004FF4E010CDE910054FF4C0600421129079
:101F40004020002409910121139006A80C94CDE9AA
:101F50000A440B910D91FFF7EDFB20B1EFF31080D8
:101F600072B6FFF7CDFA0F20CDE901058020CDE94B
:101F7000030401A802210594FFF7D4FA20B1EFF37E
:101F8000108072B6FFF7BCFA7020C4F24220012123
:101F9000016042F2FA114FF2E870C0F60001C1F69A
:101FA000FF700C22FEF7D0F9002840F0AB80FFF75D
:101FB000B9FEFFF773FEFFF793FE41F20004C4F28F
:101FC000010420464FF48051FFF7D8F920464FF422
:101FD0000061FFF7D3F920464FF48061FFF7CEF997
:101FE000A4F500604FF40041FFF7C8F940F28448BF
:101FF000C2F2000840F69562C0F600024046062193
:10200000FEF7ECFE40F6BD72C0F600024046082125
:10201000FEF7E4FE40F2E845C2F2000540F6297200
:10202000C0F6000228460621FEF7D8FE41F24D0216
:10203000C0F6000228460821FEF7D0FE40460221E5
:10204000FEF792FA28461021FEF78EFA4046FEF778
:1020500035FA2846FEF732FA40F27007C2F200075E
:10206000002406AE0BE000BF002000F04DF8012078
:1020700000F04AF8D8F80000806928688069FFF706
:1020800083F97968401AB0F57A7F1BD3FFF77CF9A2
:10209000786000200121FFF7E1FD98B901200121BE
:1020A000FFF7DCFD70B938780130C1B2062938700D
:1020B00008D3FFF7C7FD00200121FFF723FAFFF740
:1020C000A1FD3C7000200121FFF7C8FD48B10020B0
:1020D000012132463C70FFF775FE00203146FFF7C4
:1020E00013FF01200121FFF7B9FD0028BCD001201A
:1020F000012132463C70FFF765FE01203146FFF7B3
:1021000003FFB1E7FFF7D4FEF0B58DB040F27806DB
:10211000C2F200063518315C2A79914208D0315C50
:102120002A79914206D9315C2A79891A090607D1A0
:102130000DB0F0BD2979325C511A10310906F7D083
:1021400024A151F8204007462046FEF78DFB0328C6
:10215000EED12879F25D3946904209D1042000225F
:102160000690CDE9072202A80AA9FEF738F922E075
:1021700040F280022879C2F2000202EB012101EB59
:102180000013000108581A7959799F79DE689B6815
:102190000029CDE90A362B7918BF0121013303F05C
:1021A0000F032B718B0004AE46F8210006930892B2
:1021B00057B10220079004A902AA01AB2046FEF7FE
:1021C000EBF90DB0F0BD00BF0020002A0790CAD186
:1021D000F1E700BF84040020E804002000000405AB
:1021E0000607080900000000000D000000000000C4
:1021F0000000010203040607080933445566112252
:102200003344776655440102030405060708090AAA
:102210000B0C0D0E0F1000003822000800000020EB
:1022200010000000B401000848220008100000203F
:10223000400B0000D4010008010000001000000065
:082240000024F400000000007E
:04000005080001519D
:00000001FF
